:020000041002E8
:1000000000200420F7000210CB000210CD000210E7
:10001000C9000210C9000210C9000210C900021074
:10002000C9000210C9000210C9000210CF0002105E
:10003000C9000210C9000210D1000210D300021042
:10004000C1000210C1000210C1000210C100021064
:10005000C1000210C1000210C1000210C100021054
:10006000C1000210C1000210C1000210C100021044
:10007000C1000210C1000210C1000210C100021034
:10008000C1000210C1000210C1000210C100021024
:10009000C1000210C1000210C1000210C100021014
:1000A000C1000210C1000210C1000210C100021004
:1000B000C1000210C1000210C1000210C1000210F4
:1000C000EFF30580103800BE00BE00BE00BE00BECB
:1000D00000BE00BEF2EB8871E82C0610202D061041
:1000E0003801021090A31AE71E481F49086006C88D
:1000F00081F3088810471D480068002801D019487E
:10010000F3E70DA40ECC002902D000F012F8F9E7B5
:100110001749184A002000E001C19142FCD116495C
:100120008847164988471649884700BEFDE701C938
:1001300001C29A42FBD37047202D0610C000002058
:100140001C0D00209C390610000004200000042033
:100150009C3906100010042000100420000000004C
:10016000704700000000000008ED00E0000000D033
:10017000400D002068F10120C54602104103021025
:10018000BD460210F8B5C04606480749091A8B104B
:10019000C90FC91810B5491003D0044B002B00D06B
:1001A000984710BD1C0D00201C0D00200000000011
:1001B000054B10B5002B03D00449054800E000BFF3
:1001C000FFF7E2FF10BDC04600000000DC6C00201D
:1001D000A894051070B5094D094C05F013FB0100FA
:1001E000280004F081FC05F013FB0100200004F05E
:1001F0007BFCC82008F0AEFBEFE7C046A8940510D2
:10020000B894051070B584B00BF008F90A2001F01D
:1002100029F83B4809F00AF809F016F808F0ECFF55
:1002200009F026F809F056F809F0E0FE09F05EFD45
:100230000123C722002583548C3A83544533C55487
:1002400009F004FD0AF07CF80AF0EEFB09F06EFFFD
:1002500009F04CFDCC23C35C03AC2370FA232000CF
:10026000DB0063800EF07AFA20000EF08BFA0BF0C0
:1002700069FFD023010060881B061B78019020785D
:10028000204E214A0090300004F02EFC0BF042FF7B
:1002900000211E4805F0B4FF1D4B002218601D4BC5
:1002A0001D4900931D48002308F0D8FE1C4B8022F6
:1002B000186008231B49009301950023D2001A48B7
:1002C00008F052F917238022009318490023019562
:1002D0001201174808F048F9062380220093D20043
:1002E000002314490195144808F03EF900211348F1
:1002F00001F01EFA002008F0BDF904B070BDC04640
:1003000080F0FA02CC94051054CB0510FFFFFF7F5C
:10031000D86C0020F1A90210881300001495051074
:10032000AC6F002020950510CDBC02103095051053
:100330003DB6021044950510D5010210C4200000FE
:100340000023802200B583B0019341330449009318
:1003500092000023034808F007F908F02FF9FEE7A0
:100360005895051005020210D02370B5044C1B06E9
:100370001D782378AB4202D00AF02EFB257070BDA9
:100380004DF1012010B5024804F0AEFB10BDC0468F
:100390006495051010B5052000F0F4F8014B1860C5
:1003A00010BDC0461C3B0020F8B5DE464E46574601
:1003B0004546E0B58B4605000A991800160001F085
:1003C000EDFD0A9B6C001F02324B64199C46A40091
:1003D0006444636881469F4200D967602B1FDBB28B
:1003E0009846012B30D9C02380229B01E3181201CB
:1003F0001A60294BAD0059599A4600291BD1730147
:10040000E026226853401E40802342465B01E318E9
:100410001E60012A30D9802380229B01E31812013B
:100420001A6053464A4667605A51F0BCBB46B24612
:10043000A946A046F8BD586901F0B0FD013043005F
:100440001B18033BFDD2DAE75B46012BCBD1C0235F
:1004500003229B01E3181A60023AA3681A42FCD0F7
:100460007301E0262268AD0053401E4080230A4AF3
:100470005B019246E3181E605A46216851400322F0
:100480000A401A6001225B469A40A3681A42FCD0D7
:10049000C1E7C04600800040B83D0020F0B54646A8
:1004A0004F46D646C0B51F00344B44009C46241826
:1004B000A4006444636888461600FF2B02D880239A
:1004C0005B006360031FDBB29A46012B30D9C02367
:1004D00080229B01E31812011A60294B85005959AB
:1004E000994600291BD17301E026226853401E4023
:1004F000802352465B01E3181E60012A30D9802315
:1005000080229B01E31812011A6080235B00636064
:100510004B465F51E0BCBA46B146A846F0BD5869AB
:1005200001F03CFD013043001B18033BFDD2DAE72C
:100530004346012BCBD1C02303229B01E3181A6051
:10054000023AA3681A42FCD07301E02622688500B3
:1005500053401E4080230A4A5B019146E3181E6007
:1005600042462168514003220A401A600123424654
:100570009340A2681342FCD0C1E7C046008000400F
:10058000B83D0020014B8000C0587047B83D0020A6
:100590000FB400B5084883B004F022FA049B002B86
:1005A00007D005A91800019104F054F8034804F09D
:1005B00017FA012004F066F88C9505106CC205103E
:1005C00010B50148FFF7E4FF9C950510EFF310808C
:1005D00072B6034A1368002BFCD0BFF35F8F7047DD
:1005E0002C0100D0BFF35F8F0022024B1A6080F312
:1005F000108870472C0100D070B5EFF3108C72B6E4
:100600000D4D2B68002BFCD0BFF35F8F0724CB0868
:10061000C618C05C01230C40A3401C0004400342E8
:1006200007D118433070BFF35F8F2C608CF31088B4
:1006300070BD1000FFF7ACFF2C0100D0F8B54746A5
:10064000CE46884680B5EFF3108C72B61C4D2C68F0
:10065000002CFCD0BFF35F8F9A4222D807210126DD
:10066000894602E00132934218D34D4637001540C7
:10067000AF40D4080119045D2742F3D110003C4378
:100680000C70BFF35F8F00220D4B1A608CF3108843
:1006900000280EDBC0BCB946B046F8BD0120404280
:1006A000EFE7BFF35F8F00232B608CF310880120EE
:1006B00040424346002BEDD00898FFF769FFC04643
:1006C0002C0100D030B5EFF3108C72B60A4C2368C1
:1006D000002BFCD0BFF35F8F072301220B409A4011
:1006E000CD08435D93434355BFF35F8F00232360E1
:1006F0008CF3108830BDC0462C0100D0044A10781D
:10070000431CDBB2172B00D9102313707047C0466F
:100710007805002010B5034B01001800024AFFF7CE
:100720006BFF10BDAC3D0020AC95051010B5064B1D
:10073000064C82B00100009318221F232000FFF70F
:100740007DFF02B010BDC046CC950510AC3D002029
:100750000021044B044ABFF35F8F02C39342FAD1D6
:100760007047C046000100D0800100D0094A8300D4
:100770009A1810B514684022544080322240064C2A
:10078000C000A44663441A60044B9C466044416028
:1007900010BDC04604C0014004D0014000400140EB
:1007A000074B8000C3181B68C90092000A435A40D7
:1007B0000C231340034A9446604403607047C046CC
:1007C00004C0014004D001408000002905D0064B40
:1007D0009C460223604403607047044B9C460223FE
:1007E00060440360F8E7C04604E0014004F00140C3
:1007F000D0231B061B6830B50500584243412F200B
:100800005B4283430E48EC08844607202840800062
:10081000814020000B4D3C3063448000A4004151D6
:100820001B19002A05D08022920194466344196066
:1008300030BDC0229201944663441960F8E7C04677
:1008400030410140004001400123D0228340120684
:1008500093629361094A83009A18116840225140BB
:1008600080320A400649C0008C4663441A60054B3A
:100870009C460523604443607047C04604C0014065
:1008800004D0014000400140054B064A1360064A6F
:10089000136053609360D360136153619361704739
:1008A0008080808000E400E004E400E01F23184022
:1008B0001E3B8340002905D0C021044A4900535003
:1008C00013607047802201498B50FAE700E100E095
:1008D00001228240034B1B6813405A1E9341D8B239
:1008E0007047C04600E100E070B50D00EFF31086E0
:1008F00072B60F4A1368002BFCD0BFF35F8F0D4B0D
:1009000010309B6884001B590B4A934203D09D42D0
:1009100001D001F0C7F9074B9B681D51BFF35F8FF2
:10092000BFF35F8F0022024B1A6086F3108870BD00
:10093000240100D000ED00E0C1000210F0B5DE4659
:1009400057464E464546E0B50C0083B0EFF310889D
:1009500072B6634A1368002BFCD0BFF35F8F614B04
:1009600061499A68030010339F00D55901938D4265
:1009700043D0A54254D05D4EAA1B2F2A3DD85C4BD4
:100980009B461B68994601231A009C4682404B46B1
:1009900013401F2299466346024093409A468022A4
:1009A0005B4650469850BFF35F8FEFF305839B463D
:1009B000002B37D0019B5B4501D001F073F9012377
:1009C0002A009A439068844208D176E04B005B1875
:1009D0009B00F3189868844236D01A0006215156BD
:1009E0000029F3DA844254D04B46002B27D0C02292
:1009F00051463F4B5200995019603A4B9B68DD516C
:100A0000BFF35F8FBFF35F8F0022354B1A6088F30F
:100A1000108803B0F0BCBB46B246A946A046F0BD64
:100A20000D00EAE72A0063469A4390688442D5D1D4
:100A300006201056130000280ADA0D0031E080234A
:100A400051462B4AD150D8E706201856002821DB02
:100A500042001118890074188B46A1689960E179E9
:100A6000D971062161569971002924DBA488F11AF5
:100A7000640524155C44091909051E4C490D2143E0
:100A8000998013181C4A9B001178F3189971107003
:100A9000AAE713005946002914D1FF319171174973
:100AA000918015490A789A71154A9B1B5B415A43FC
:100AB000120D0A7098E71149E2E70620105613005C
:100AC0000028C5DA0F4A1049D21A083A5002400DE0
:100AD000014399800D4952080A43DA8084E7C046F1
:100AE000240100D000ED00E0C10002107C050020D0
:100AF00000E100E000E0FFFF5DF1012001BDFFFF2C
:100B0000AAAA0000B605002000F0FFFF00F8FFFFD2
:100B100010B58308040003202040FF24054AC000CC
:100B20009446844081409B0063441A68A2430A4370
:100B30001A6010BD00E400E070B501240443EFF337
:100B40000581EFF3108C72B6214A1368002BFCD09C
:100B5000BFF35F8F1F4B05001F4AED1A6D416A43BB
:100B6000120D1E4D8900AE6852B27658A6421CD0B6
:100B70000621595691421CD012215956914222D039
:100B80001E215956914220D02A21595603249142C0
:100B900010D0134B19781A708171BFF35F8F002248
:100BA0000B4B1A608CF3108870BDAB680D4C5C5019
:100BB000EFE700246100091989005B18FF21997192
:100BC00009499980E5E70124F4E70224F2E7C046E9
:100BD000240100D07C050020AAAA000000ED00E05E
:100BE0005DF10120C100021001BDFFFF024B9C46D8
:100BF000614489000160704740000034F8B5124C30
:100C0000124DAC4212D20126002776422368002BF7
:100C10000DD0FFF773FD01002000FFF7E7FF6660CE
:100C20002772BFF35F8F0C34AC42EFD3F8BDFFF7F0
:100C300065FD01002000FFF7D9FF6660BFF35F8FFD
:100C40000834AC42E2D3F1E7C00C0020D00C002005
:100C500010B504000120FFF769FD034BC3189B008A
:100C60002360BFF35F8F10BD40000034F0B5DE4657
:100C700057464E464546E0B587B0EFF3058303225D
:100C800001251A40954091008846A946B34B03922E
:100C90005C58B34B1D60B34B04934B46B24843635F
:100CA0000823E55E002D37DAA3881BB2002B00DB9A
:100CB000ADE0A379002B00D0EEE00823E05E002831
:100CC00020DB430062691B18DB00D3189E68DD68D7
:100CD000731C00D111E1A44801004144826A0B69F0
:100CE000B71A9B1A9F4215D30123026A03988340C7
:100CF0001A420FD09C4800F053FC8D4202DCCCD14C
:100D00008642CAD940BF07B0F0BCBB46B246A9462E
:100D1000A046F0BD0E61EDE762696B0092465B197B
:100D2000DB009A4453469E68DF6800F039FC8F422E
:100D3000BADC00D103E1002F00DAE8E05246534666
:100D400052691B699346049A934200D1D9E05246F6
:100D50000821605E5288000459461043984700906D
:100D600001910099019A0B001000134300D1CEE0CD
:100D700013000A00B61A9F41002806DB7A4800F0EB
:100D80000FFC009E019F36184F4153469E60DF6066
:100D900000229A5E002A00DA86E7530099186069FB
:100DA000C900411802938B68C9689B46B94200DDAF
:100DB0007AE702D1B34200D976E708239C46A444DF
:100DC000059565462281A446029B2C0006E053004F
:100DD0009918C90041188D68C968AB469B18DB009B
:100DE000C318B94206DC00D1B3E01C000023E25E68
:100DF000002AECDA230064469C4653461A80634678
:100E0000059D1D80A3881BB2002B00DA51E72269E3
:100E1000EFF3108172B61368002BFCD0BFF35F8F25
:100E20000123A7885B42A3803FB22369BFF35F8F92
:100E300000221A6081F31088002F00DA39E72300BE
:100E4000083322009A4666697B00DB19DB00F31841
:100E5000996850468C460824115FDD68002910DB34
:100E6000029306E0AB4244D00023E15E200000295B
:100E700006DB4C006418E4003419E368AB42F1DD92
:100E8000029B078000201F5E1980002FDCDA14000F
:100E9000A379002B00D110E70023A37126000823BB
:100EA000E15E08364B1C00D12CE70800A2466569BC
:100EB00002E03E004B1C1AD04B005B18DB00EF1821
:100EC0000A008C46E95E7B881BB2002BF1DA012315
:100ED0005B42DC17BB60FC60824205D05346318028
:100EE0001B893B8053461A8160464B1CE4D1544613
:100EF000E5E6A3686345B7D9C2E76B1C00D0EAE614
:100F0000F8E65B4658461B69984700281BD15346B4
:100F10001B8822692381EFF3108372B611680029C0
:100F2000FCD0BFF35F8F514662880A8022696580DA
:100F3000BFF35F8F0021116083F31088B4E686420F
:100F400000D8F8E6B0E65B461A685B680092019349
:100F500007E7B34500D848E74CE7C046F86C0020E7
:100F60003C7005406D0C021000400540074810B56C
:100F70000268EFF3108172B61368002BFCD0BFF348
:100F80005F8F04F0E9FD0020002110BDE86F002014
:100F900070B52E4C2569002D04D00A212C48FFF78E
:100FA00025FE70BD2B4E0321300000F0EFFAE66005
:100FB000FFF7A4FB284B03229C46D02322701B067C
:100FC0001B6801216370254B6044A3600F238000E0
:100FD00020610220638063694942A1801980023147
:100FE000198647311D83585218315A5275325C396F
:100FF00099521832013199521832013199521832EE
:1010000001319952083518329D52023118329952E5
:101010001832013199521832013199521832013186
:1010200099521832013199521832013199520C4BB0
:101030000C49DC6001303562FFF756FC01210320CA
:10104000FFF734FC084B1D60A7E7C046C40500202D
:10105000E86F00200040054040000034FFFF100012
:10106000F86C00206D0C0210386005400048704795
:10107000C405002070B501000469EFF3108C72B64E
:1010800020680028FCD0BFF35F8F02200D5E4C6902
:1010900068004019C00024180869002D36DB268836
:1010A0004E80BFF35F8F002606608CF31088E360EC
:1010B00063880498013320615B0405985B0CA2608F
:1010C00060611A1C002B1FD093B228046280184361
:1010D0000A69EFF3108C72B61368002BFCD0BFF3D3
:1010E0005F8F8B8823808D800B69BFF35F8F002219
:1010F0001A608CF310880B7801329A40CB6808494B
:101100008C4663441A6070BD0122DDE7BFF35F8F38
:10111000002303608CF3108801204042F3E7C046AF
:101120003C20000010B543890A1493421ADD530095
:101130009B184269DB00D3180469EFF3108C72B678
:101140002268002AFCD0BFF35F8F5A88090494B24A
:10115000090C8A4208D00369BFF35F8F00221A602E
:101160008CF31088002010BD8022120214435C8092
:10117000012302698371BFF35F8F002111608CF33B
:101180001088044902788C469340C268012062446A
:101190001360E8E73C200000F0B54746CE46060065
:1011A00080B596246442E5170F00A4197D4183B0F1
:1011B0008D4215D812D000F0FBF922002B00121A34
:1011C0008B41002B16DC002B40D03000390000F0A2
:1011D0002DFA03B0C0BCB946B046F0BD8442EAD98E
:1011E0000024002500F0E4F922002B00121A8B41A4
:1011F000002BE8DD00F0DCF922002B00121A8B41F5
:10120000002B0ADB00230193124B220000931248AB
:101210002B00FFF72FFF0130D7D0A846A1460F4D76
:101220000F4C6B6A984504D8AA6A4A45CDD29845B6
:10123000CBD12268EFF3108172B61368002BFCD07B
:10124000BFF35F8F200004F053FCEAE7002ABCD014
:10125000D0E7C0466D0F0210C405002000400540D5
:10126000E86F0020F0B5CE46474680B583B0040055
:1012700000F09EF9FA2206000F0020000023002152
:10128000920001F0AFFC8019794104000D1E02DAD2
:1012900001242D4D644296267642F71736196F4188
:1012A000AF4215D812D000F083F932003B00121A79
:1012B0008B41002B18DC002B43D02000290000F0CC
:1012C000B5F903B0C0BCB946B046F0BDA642EAD9F4
:1012D0000022002316001F0000F06AF932003B00D4
:1012E000121A8B41002BE6DD00F062F932003B0060
:1012F000121A8B41002B0ADB00230193134B32009F
:10130000009313483B00FFF7B5FE0130D5D0114BD9
:10131000B1469846104E736A9F4204D8B26A4A4555
:10132000CBD29F42C9D143461A68EFF3108172B6FF
:101330001368002BFCD0BFF35F8F404604F0D8FB4E
:10134000E9E7002AB9D0CFE7FFFFFF7F6D0F02105A
:10135000C4050020E86F002000400540F0B5574666
:101360004E46DE464546E0B506000F0085B0EFF379
:10137000058399468B46002B12D0384900204B6AD2
:10138000BB4206D38A6ADB1B591E8B41B2424041E5
:10139000184305B0F0BCBB46B246A946A046F0BD16
:1013A0002F4B9A46DB68984653461B78404603937A
:1013B00000F0F6F84246039B040004339B009B5860
:1013C0000D001B1A39003000001BA941894510DCB3
:1013D0000DD020BF214A0020536A5B45D9D3926AC1
:1013E000DB1B591E8B41B24240411843D1E7834277
:1013F000EFD900F0DDF832003B00121A8B41002BD0
:101400001ADB00230193174B3200009350463B0038
:10141000FFF730FE011E0FDD104B5A6A5A451BD3F1
:101420009B6AB34216D35046FFF77CFE0B4A00205E
:10143000536A5B45ADD3D2E7084A0020536A5B4547
:10144000A7D30020926ADB1BB24240415A1E93414F
:1014500018439EE75A45E6D120BFE4E70040054027
:10146000C40500206D0F0210F0B5CE4647461100AE
:1014700080B583B004009C460C9D194300D16CE0FC
:101480006146DB170193009353401E00019B4B40C4
:101490001F0000980199361A8F4163460A996B60C4
:1014A0000B9BAC6029612A606B6100F081F88019A8
:1014B0007941002902DA0120314940422269EFF3E3
:1014C000108972B61368002BFCD0BFF35F8F022324
:1014D000E65E636972009219D2009B1822699046F9
:1014E000002E42DB1A886280BFF35F8F00224746DE
:1014F0003A6089F31088234A9860D9601A615A8843
:101500005D6101325204520C111C002A2BD088B2AA
:101510003204024359802069EFF3108772B60168E4
:101520000029FCD0BFF35F8FA1881980A6802369B2
:10153000BFF35F8F0021196087F31088124823786A
:101540008446013199400120E36863441960EA60F0
:1015500003B0C0BCB946B046F0BD00230126002749
:1015600001229C4699E70121D1E7BFF35F8F002359
:10157000136089F31088012200205242E7E7C04639
:10158000FFFFFF7F6D0C02103C20000010B5024AE7
:101590000248FFF731F810BDE8950510B03D002076
:1015A0000300416A0A00986A596A8A42FAD1704770
:1015B000034B596A0A00986A596A9142FAD17047F6
:1015C0000040054070B504000D00174A536A190029
:1015D000966A536A8B42FAD13000190024184D41A3
:1015E000AB4216D813D0104B2A005B6A9D4203D938
:1015F0000D494B6A9342FCD3934207D10A4A02E059
:10160000516A994202D1916AA142F9D370BDA642B2
:10161000E9D9054B5B6A1C005A1CEFD0012201245A
:101620006442E5175242E3E700400540064A536A28
:101630009942FCD807D1044B02E05A6A914202D188
:101640009A6A9042F9D8704700400540F8B5040006
:1016500021481E0017000D0000F0A0FC010038001A
:1016600000F09CFC069B36041B031E432368002BE2
:1016700020DB1A4B1A49E3185A1E9341802292012B
:1016800094465B421B0B174A1B0363441360164AC4
:1016900013601F000A689743FBD1144B2560E218C2
:1016A0002123A06013602368002BFCDA0823E66086
:1016B0001360F8BD3F2322681340AB42D9D1A36821
:1016C0001B051B0D8342D4D1EE22E368D2021340E6
:1016D000B342CED1EDE7C046001BB7000040FDBFCE
:1016E00008C0004000E0004000F00040043000006E
:1016F000044B00011B68044A5840F0230340136068
:101700007047C0460040064000500640024B186833
:101710000006000F7047C04600400640024B1A68A2
:10172000024B5A607047C046D06C002000800540D4
:10173000194B1A4A10B5DA618022194BD2051A608A
:10174000184C194A146000290AD0E022174BD20421
:101750001A60002809D18022144B12061A6010BDAD
:10176000E022D2041A600028F5D043011B1A9B0026
:101770001818802300015B04984209D203000C4A28
:1017800013608022044BD2055860084B1A60E6E7CC
:10179000084B1800F3E7C046008005402131B76AC6
:1017A00000B00540FCFF01000820014000A00540FA
:1017B000D06C0020FFFFFF0010B580241C4BE40517
:1017C0001C6000281AD001231A4C18431A4BDC6104
:1017D0001A4C44401C62596298628021144BC9051E
:1017E0001960174817490860E021C9041960002AE8
:1017F00007D18022144B12061A6010BD0E4BD8611F
:10180000EBE753019B1A9B009A18802312015B049B
:101810009A4209D213000D490B60074B5A6080228F
:10182000094BD2051A60E8E7094B1A00F3E7C046F6
:1018300000B00540D3C007B0008005402D3FF84FF1
:10184000FCFF01000820014000A00540D06C0020F2
:10185000FFFFFF008023024A9B000B43D3627047C7
:1018600000800540002310B50100988A1B8B984723
:1018700010BDC046162310B50100188802331B881E
:10188000984710BDF8B54746CE4680B50F1E18D014
:1018900014239946043304000025012698464B463C
:1018A0001888434621681B88984701C4431E984105
:1018B00001350640AF42F2D13000C0BCB946B04657
:1018C000F8BD0126F8E7C04601207047D021F0B5E9
:1018D000C64609060A681D4B9200804600B5D358DB
:1018E00083F3108803230C68194D2B5540BFFFF775
:1018F0005FFEFA2206000F000023404600219200FE
:1019000001F070F980197941002902DA01201149AA
:1019100040422B5D0E00042B08D00F4A536A9E42B2
:101920000ED8976A874201D29E4209D0285D0438BA
:10193000431E984101234042984380BCB846F0BD05
:1019400020BF2B5D042BE9D1F0E7C046C46C00201A
:10195000D46C0020FFFFFF7F00400540F0B5C64675
:10196000D02300B51B061C6886B005AB220002938D
:1019700001235A4093400193002380460093802224
:1019800023002549254806F005FE01283CD1244DB9
:10199000285540BF1F21059805F028FCFFF708FED9
:1019A000FA2206000F00002340460021920001F0B9
:1019B00019F980197941002922DB2B5D0E00022BD9
:1019C00008D0184A536A9E4215D8976A874201D2B6
:1019D0009E4210D02B5D022B19D1D0231B061A6812
:1019E000EFF3108172B600200F4B9200D15006B079
:1019F00080BCB846F0BD20BF2B5D022BE2D1E9E7E9
:101A000001200A494042D8E709204042EFE703237A
:101A100002202B554042EAE70C960510BD0100203C
:101A2000D46C002000400540C46C0020FFFFFF7F05
:101A300000487047DC050020F8B506000F001500CF
:101A4000FFF7F6FF041E0AD04368280098470028D5
:101A500004D13800B0472800A3689847F8BD042097
:101A60004042FBE7AA23064A1B0113608D235B005B
:101A7000D3600449044B19605368002BFCDA7047AB
:101A80000040024000B0FA000060024003BDC046C2
:101A900010B5040000F020F9A04710BDF0B5C6460F
:101AA00000B5040086B00F200E009046FEF710FF30
:101AB000002105000F20FEF7F9FE0023002200920E
:101AC00001930123029343460393D0230496059484
:101AD0006F4600240026012102201B06002C13D093
:101AE0001A6D1042FCD05C6540BF1A6D114203D1E3
:101AF00020BF1A6D1142FBD09A6DA24209D0002678
:101B0000B200BC58EAE79A6D1A6D1142FBD140BF92
:101B1000E6E70136062EF3D129000F20FEF7C6FEB8
:101B200006B080BCB846F0BD0D4B0E4A70B593426E
:101B300010D31C000C4A99180B4D0C4A9268605146
:101B4000FF20C00023500A4B0A4823500A48FFF7E1
:101B5000A5FF70BD01235B421C000849ECE7C046AD
:101B60000008042000000420F407000000ED00E05D
:101B7000911A0210FC0700008D1A0210F3070000F2
:101B8000F8B5040006200D00FEF7FCFC002844D048
:101B9000374B3849E3185A1E934180221204944669
:101BA0005B429B0D344A9B0563441360334A1360C8
:101BB00018000A689043FBD12D4B314AE318594273
:101BC0004B4180215B00490006209952FEF7DAFC68
:101BD0002900C00000F0E2F90130C3091ED14027FE
:101BE00001226262A362266BF30722D4E36A254BCB
:101BF0000620E51800232B602663FEF7C3FC39009E
:101C0000800000F0CBF97023E26A5A400E33134093
:101C10002B601D4B23630323A364F8BD1B4A93422F
:101C20001ED900231A4A1B4F6262A362266BF30778
:101C3000DCD5194B144AE3181A60656AA36A0620BA
:101C4000AD01ED18FEF79EFC144900F0A7F9AD02B6
:101C50000100280000F0A2F90021FFF7B3FCC5E75E
:101C60004006800E9F011A003F180300B9E7C046E6
:101C70000080FCBF08C0004000E0004000F00040D1
:101C8000207000202C10000001030000FEFF000067
:101C9000FFFF0000C0FF3F00303000004E0E00008C
:101CA0007047C04610B50148FEF772FC1C9605103F
:101CB00070B5074D074EB54209D20024013E761B90
:101CC000B60808CD984723000134B342F9D170BD5E
:101CD000D00C00200C0D002070B5074D074EB5420A
:101CE00009D20024013E761BB60808CD9847230090
:101CF0000134B342F9D170BD040D00200C0D002059
:101D0000054B064A06491A60064A074B1A6010003E
:101D10000B689843FBD1704700E00040BFCDFBFE4D
:101D200008C00040FE7F3C0000F00040044BDB6C2C
:101D3000002B03D18022034BD2021A607047C046A9
:101D4000000011504C201150044A054B1A60054AFE
:101D50001368DB018033FBD17047C046FFFFFF01F2
:101D600000F0004008C000404022034B9A675A67C9
:101D70001A67DA667047C04600F0014010B5FEF7FA
:101D8000E7FC10BDF8B52749274C284D641AA6106A
:101D90003200302E00D930222800920000F0C4FF1B
:101DA000BC2C3BD830202F232C196407204A801BE1
:101DB000E40F9B1B052B16D93700002C02D0B30073
:101DC000771CEA50001B33199B004108EB18C9002F
:101DD000C9181A605A6008339942FAD101230342A4
:101DE0001CD09843C619B300EA50731C2F2E15D08F
:101DF0009B00EA50B31C2E2E10D09B00EA50F31C1F
:101E00002D2E0BD09B00EA50331D2C2E06D09B00AC
:101E1000EA50731D2B2E01D09B00EA50054B9D60AC
:101E2000F8BDC04600000210C000021000000020F3
:101E3000C100021000ED00E0002310B52E4C82B06E
:101E4000A367FFF70FFE01222C4B1A60636C012B76
:101E5000FCD103222A4B1A60274A936B012BFCD139
:101E60000121284A284800930533FFF7EFFB05239B
:101E70000121244A25480093FFF7E8FB00220221B4
:101E80000420234BFEF70AFBFFF740FC0B282CD95C
:101E90000022012105201F4BFEF700FB002200213C
:101EA00007201D4BFEF7FAFA0022002108201A4BEA
:101EB000FEF7F4FA8023DB000093002200210920C2
:101EC000154BFEF771FA0022124B00210620FEF797
:101ED000E5FA0420FEF756FB104900F05FF8010018
:101EE0000020FFF7B7FC02B010BD0C20FFF700FC8C
:101EF0000B4B033BFDD2CBE7008000403CB00040E1
:101F000030B00040008C86470080024000C0024094
:101F1000001BB70000C2EB0B006CDC0240420F005C
:101F2000E02E000001480421014B1847F005002075
:101F300085180210014B5B6818470000F00500206F
:101F4000014B9B6818470000F0050020124A936F70
:101F50009B0815D29066D166002905D0FFE7FFE700
:101F6000FFE7516F106F704704B580210906C21753
:101F70005140002800D0C84337F076FA002104BD54
:101F8000F0B5146E556E576F166FFFF7E3FF1466CA
:101F9000556657671667F0BD000000D0114A936F71
:101FA0009B0813D210665166002905D0FFE7FFE7B2
:101FB000FFE7516F106F704704B5002801D0002073
:101FC000C04337F051FA002104BDC046F0B5146E8D
:101FD000556E576F166FFFF7E5FF14665566576726
:101FE0001667F0BD000000D094464A4A926F9208EE
:101FF000624601D228E0C046F0B5464E346E756E9A
:10200000776F366F00F020F89446424A14665566A2
:10201000576716676246F0BD94463E4A926F920833
:10202000624601D254E0C046F0B53A4E346E756E49
:10203000776F366F00F04CF89446364A1466556652
:10204000576716676246F0BD002B24DB11D00029CC
:102050003EDA00B5C943404200D1013100F038F802
:10206000C943404200D10131DB43524200D1013328
:1020700000BD002AEBD1002801D1002905D00020A5
:10208000C90FC90701D1C043410800B537F0DCF9D9
:102090000022002300BD00B500290ADBDB435242C9
:1020A00000D1013300F014F8C943404200D101319E
:1020B00000BDC943404200D10131DB43524200D14F
:1020C000013300F005F8DB43524200D1013300BD7B
:1020D000002923D1002B18D1002A0CD0BC460D4F6B
:1020E00038667A6600210023FFE7FFE7FFE77A6F93
:1020F000386F67467047002801D00748010000B5D7
:1021000037F0A2F90022002300BD02000B000020DE
:1021100000217047000000D0FFFFFFFF002B00D020
:10212000BFE0130C28D1002AE7D080B4114F3966E4
:102130007A66FFE7FFE730B4040C7B6F396F1B044E
:1021400023433B667A66FFE7FFE7FFE7C04684B2BA
:102150007B6F3D6F1B0423433B667A66FFE7FFE717
:10216000C04600232C042D0C7A6F386F001969418A
:10217000B0BC7047000000D0F0B594460025140EA6
:1021800001D112020835140F01D112010435940F48
:1021900001D192000235D40F01D152000135D40B88
:1021A0000134254F7C66254C3C660E0C93B2FFE74C
:1021B000FFE7FFE73C6F6643360C7703BE46734389
:1021C000DF0B5B04C01AB941130C7343DB18C91A47
:1021D000CE086643360CB64493B273431F0F1B01FF
:1021E000C01AB941130C73431F0B1B05C01AB94128
:1021F000860D8F023E436643360C092D24DB520ABE
:102200007243801A7703460A6643360C16235B1B1B
:10221000DE40DF40BF1964466643821B70460435CA
:1022200006330100D940A840C01900D30131A242B1
:1022300006D20023F0BD0000000000D0FFFFFFFF2A
:10224000121B0130F3D3F1E709277F1BFE406446E0
:10225000A2B27243801A00D20139220C7243130CCD
:102260001204821A99410B0070460435133701009D
:10227000F940A840801900D30131002B02D1A242BD
:102280000AD2F0BD013000D30131121BFAD2013B5A
:10229000F8D1A24200D2F0BD013000D30131121BAF
:1022A000F7E7F0B51C0C00D080E00CB400251C0A48
:1022B00004D11B02160E3343120208351C0B04D145
:1022C0001B01160F3343120104359C0B04D19B00F4
:1022D000960F334392000235DC0B02D192185B411A
:1022E00001351C00971864410134464F7C66464C0A
:1022F0003C660E0CFFE7FFE7FFE7C0463C6F664316
:10230000360C7703BE4697B27743C01B00D2013923
:10231000C01B00D201399FB27743C91BC91B170CE0
:1023200077437E04FF0B801BB941CE086643360C11
:102330000C2D33DBB644120B1F053A431B0B97B22F
:102340007743C01B00D201399FB27743C91B170CDA
:1023500077433E043F0C801BB941860D8F023E43FC
:10236000664329277F1BFE400C3D7746AF40BF19CF
:1023700030BCA2B2ABB272437343801A9941220CB3
:102380007243130C1204801A994102000B000137AA
:10239000001BA941F9D2781E0021F0BD0C277F1B3C
:1023A000FE4077467F0BAF40FF19E0E700245D1C3D
:1023B00007D0144F7D663966FFE7FFE7FFE7FFE7C9
:1023C0003C6F95B29EB265436643401BB141150C0C
:1023D0001E0C6543664336042F0C3E432D04401B00
:1023E000B141994204D202000B0020000021F0BD4F
:1023F00001D19042F7D3801A994101349942F2D326
:10240000F6E70000000000D0FFFFFFFF484041401A
:10241000484018B41B4B5B68FC46019308BD04DFC1
:10242000B726021018B4174B1B68FC46019308BD71
:1024300000DFC12602109446134A926F920809D217
:10244000624618B40F4BDB68FC46019308BD0CDFF5
:10245000792902100C4AF0B5146E556E576F166F3D
:102460006246FFF7EEFF084A14665566576716671F
:10247000F0BD18B4034B9B68FC46019308BD08DF10
:102480001D280210E00E0020000000D0FFB55040D3
:102490004240504059404B40594000E0FFB5154F75
:1024A0004C00640D03D0BC4204D10C0314D80020AE
:1024B000090D09055C00640D03D0BC4204D11C0366
:1024C0000AD800221B0D1B0501264B4009D44B40A6
:1024D00003D58B4200D18242FFBD9942FCD190428C
:1024E000FFBD0B43DB1803431343F5D0C943491821
:1024F000FFBD0000FF07000000B5FFF7CFFF8041E0
:1025000000BDC04600B5FFF7C9FF01D9002000BDDE
:10251000012000BD00B5FFF7B9FF01D9002000BDC3
:10252000012000BD00B5FFF7B1FF804100BD0120D3
:1025300040054A00121804D85A00121801D8002089
:1025400070470120704700000021002805D1704726
:10255000C1174840401AFAD0C90713B5064B1B688B
:1025600098470CBC441CA2401005120B0349091BE0
:1025700009051943114310BDE46F00201F0400003A
:1025800010B54C00620D8023D218DB00D21A5B0517
:102590007E2A10DD9E3A13DACC1709034908194345
:1025A0005242D140640001341532202A05DAD0406D
:1025B0000843604310BD002010BD0846604310BDB5
:1025C000C80FC018013810BD18B4044B5B6AFC4634
:1025D000019308BD24DF292B02100000E00E00202B
:1025E000132370B51D78012D19D014DD1F48FFF796
:1025F00041F906001E48FFF73DF91E4C80223100CC
:10260000200000F091FB022D2DD01B48FFF72AF986
:102610001A4B186070BD1A4B164CA364F5E7184BA3
:10262000144C23606360A360E36023616361A36172
:10263000E36123626362A362E36223636363A36370
:10264000E36323646364A364E36423656365A36550
:10265000E36523666366A366E36623676367A36730
:10266000E367A364D1E7064BA364CEE753440000BD
:1026700053460000E00E00204C330000E46F0020C1
:102680008526021007B5604601880A0A0230DF2A53
:10269000FAD1C9B2820804D30288408800041043EA
:1026A00000E00068014A5050039007BDE00E002092
:1026B0000FB403BC0CBCF0B50124E407634000E098
:1026C000F0B50C0DCF0F661E3605891B640503D3CC
:1026D000C943404200D30131640D03D0661CF60AA1
:1026E00007D0E41B00207F00791C89078912803CF9
:1026F00024031D0DDF0F6E1E36059B1B6D0503D3D6
:10270000DB43524200D301336D0D03D06E1CF60A39
:1027100007D0ED1B00227F007B1C9B079B12803D96
:102720002D032F1B661B58D4A446202E46DA2037D3
:102730001400BC401D00BD40F24033412A438018C4
:102740005941CB0F05D0C943C043002264425041D8
:10275000514162464D0D28D10D0D07D100281FD0E3
:10276000241940414941013A0D0DF9D0640006D3C6
:10277000013000D30131002C01D140084000013A62
:102780000BD4941CE40A04D112051144DB0719444C
:10279000F0BDD907204B194300E0D9070020F0BD58
:1027A0000029DDD1002CDBD1F0BD0132C607400885
:1027B000CD0728434908002EE1D0D9E73C2E29DA7D
:1027C000203E40371400BC4000D00124F2401443A6
:1027D0001A00BB401C43D317ACE7AC46202F08DAE5
:1027E00020360400B4400D00B540F840394128437C
:1027F000A5E73C2F0CDA203F40360400B44000D05F
:102800000124F84004430800B1400C43C117EAE733
:1028100010001900002494E70000F07FF0B50C0DC3
:10282000661E3605891BE60A6405640D02D0651C28
:10283000ED0A04D0002001210905803C2403A446B0
:102840001C0D671E3F05DB1BE70A6405640D02D003
:10285000651CED0A04D0002201231B05803C2403E3
:102860007740644497B484B296B27443070C7E43B5
:10287000150C6F4380B26843361802D30120000460
:102880003F183004350C00197D41844688B29AB255
:1028900050430C0C62431F0C7C438EB27E43921952
:1028A00002D301263604A4191604170C3618674102
:1028B00001BC81B29AB25143040C62431B0C5C43CD
:1028C00080B25843121802D30120000424181004C7
:1028D000130C401863412D185E410020474106BC8F
:1028E00088B293B258430C0C6343120C544389B220
:1028F00051435B1802D301210904641819041A0C0E
:10290000091862416D1856410020474118BCF90270
:10291000720D1143F0026A0D1043ED020A0D03D14E
:102920006D1940414941013B124E9B1B7600B34259
:102930000ED26D0007D30130002671416646354343
:1029400001D1400840001B05C918E4072144F0BD2F
:102950000BDA013306D1013004D101314F0D01D022
:102960004908F2E7E1070020F0BD013631050020FB
:10297000EBE70000FF030000F0B51C0D671E3F05EC
:10298000DB1BE70A6405640D02D0661CF60A04D05E
:10299000002201231B05803C2403D0252D060026A0
:1029A000F6432E661E096E66CE0FF619B446490030
:1029B0004F0D02D07E1CF60A03D000200021403FBC
:1029C0003F033E1BB600B444013F7F05C91B4908C5
:1029D0002E6F013676089C02950D25437543ED1345
:1029E0007543AD1301356D10F603761B0CB4CC02A4
:1029F000450D2C43A2B2B3B25A43270C7B43350C8E
:102A00006F43A4B26C431B1902D3012424043F1961
:102A10001C041D0CA4187D4124196D41009A91B22B
:102A2000ACB26143170C7C432B0C5F4392B25A4308
:102A3000A41802D301221204BF182204230C521836
:102A40007B41019C6C431B19520ED9010A4344017E
:102A5000A01A81B2B2B2514303145A43360C7343E5
:102A600087B27743D617D21900277E4136049B19C7
:102A70001704160C7F185E417316ED18F30100263B
:102A800080337541A90F06D16400690AE8055B0A25
:102A9000184309D22FE00422944480337541A90AD7
:102AA000A8059B0A184326D3404149412404009AB3
:102AB000019B0D005543641B4343E41A95B286B253
:102AC0007543170C7E43030C5F4392B25A43B6180A
:102AD00002D301221204BF183204330C52197B4175
:102AE00052429C41002C02D4002201305141400846
:102AF000CA071043490802B06246D7079210084B34
:102B0000D218084B9A4203D212058918C919F0BD90
:102B10000020002A01DC3900F0BD01331905F5E77A
:102B2000FD030000FE070000002200B5203200F087
:102B300004F8080000BD000000220B150AD410B5EF
:102B4000944600F031F81414013400DA0021CB1758
:102B5000144C20470020002170476244343A0CD4C2
:102B60000C2A07DA04009140904052422032D440AF
:102B7000214310BDD843D94310BD203207D40C46A1
:102B80009440524220321141D040204310BD0800F1
:102B9000C917203203D452422032104110BD180010
:102BA000190010BD5B2B02100A0DCC0F531E1B0524
:102BB000C91A520503D3C943404200D30131520D13
:102BC00003D0531CDB0A07D0121B00206400611CD9
:102BD00089078912803A1203014BD21A704700000C
:102BE000FF03000051434343C9188C46110C83B2C4
:102BF0004B4310B4040C614392B280B25043624321
:102C00001C041B0C001910BC59411304120CC018F1
:102C10005141614470470000132310B512481C78DD
:102C2000FEF728FE0100012C0AD003DD80220F48A8
:102C300000F07AF80E48FEF715FE0E4B186010BD36
:102C40000A4C5422200000F06FF80B4B6365A3651B
:102C5000E36523666366A366E36623676367A3672A
:102C6000E3672362E361E5E753460000E00F0020DD
:102C70004C330000E46F00207D2C021007B5604645
:102C800001880A0A0230DF2AFAD1C9B2820804D3C5
:102C9000028840880004104300E00068014A505058
:102CA000039007BDE00F0020F8B506000C000C4FA4
:102CB000380036F0F1FB2100300035F03FFB050015
:102CC000380036F0B9FB7443002D05D0054B2C19A4
:102CD0009C4201D82800F8BD0348FDF759FCC046C6
:102CE000C00C0020000004202896051070B50400D8
:102CF000054D280036F0D0FB200035F07FFB280082
:102D000036F09AFB70BDC046C00C0020014804217B
:102D1000014B18470006002085180210014B1B6864
:102D20001847000000060020014B5B6818470000B0
:102D3000000600209A4200D2885470477047C0466F
:102D4000F8B55746DE464E464546E0B599460A9BDD
:102D500007009A460D9B884693460B9C9B073BD1E8
:102D60000C9B9C423DD21E1B0B9415000C005E4434
:102D70002A004B46013521002020B847B542F7D143
:102D8000A0460B9C002C20D0454636195346321BDA
:102D9000013C185D29004B46B847002CF6D12B00AA
:102DA000350098460D9B9B070FD55B46EC1A0C9B94
:102DB000A3420AD9464698462A004B4631002020B5
:102DC0000134B84701354445F6D32800F0BCBB4672
:102DD000B246A946A046F8BD16001500002CD3D176
:102DE000E0E716001500002CCED1EEE7F0B5454621
:102DF000DE4657464E46E0B585B09C4610AB1B7884
:102E0000149F934698460F9C129E139DBB074CD46B
:102E1000002D42D1B44248D201233B4099460E9B3B
:102E2000013B9A46302304E0524601341355A64232
:102E300001D9202CF8D14B46002B00D183E00E9B0A
:102E4000013B99463023A54205D82EE04A4601347D
:102E50001355AC4229D0202CF8D1FB060CD57B05AC
:102E600054D4A64263D0A54261D0119B102B50D000
:102E7000022B57D0202C32D1202301930E9B5A468F
:102E80000093039763460295FFF75AFF05B0F0BC25
:102E9000BB46B246A946A046F0BD01233B40994639
:102EA00001233B422AD1B442B9D3FB061CD57B0592
:102EB000DBD4002CD5D1119B102B5BD0119B022BA6
:102EC0006BD0302301240E9A13704346002B10D18F
:102ED0007B073ED52B260E9A631C1655CDE72300A3
:102EE000013430260E9AD654202CC5D04346002BF0
:102EF000EED02D260E9A631C1655BEE74346002BD6
:102F00002FD0013DB44200D289E798E7119B102BE6
:102F1000B2D1BB0637D5202CAED058230E9A13550C
:102F20000134A7E7202CA7D02300013407E0631E5B
:102F3000012CC0D0119A102A31D0022AD1D1622698
:102F40000E9AD65496E7FB06CED57B0500D488E7CB
:102F50008BE723003E0790D520260E9A01331655A5
:102F60008BE70C233B405A1E9341ED1AB44200D22A
:102F700055E764E7BB060ED478230E9A022413703B
:102F800030235370A1E7202C00D175E778230E9AE7
:102F9000135501346EE75823EFE76033EDE70E9ADF
:102FA000A61E91464E44BA0602D55822327098E7C2
:102FB0007822327095E7C04610B5002800D110BDC8
:102FC00001F0C4FCFBE7C0460B0010B5002802D09E
:102FD00049681B68984710BDF0B55746DE464E4617
:102FE0004546E0B595B083460F00924698461E9A36
:102FF0001F9B10001900209EFFF799FA002800D0AF
:10300000EAE11E981F990122C54B5242FFF774FA5C
:10301000002800D014E11E981F990122C14B524292
:10302000FFF780FA002800D0E9E01E981F990022DF
:10303000BD4BFFF777FA002800D0C8E01E981F9913
:103040000022BA4BFFF758FA002800D0BFE01E98C4
:103050001F9900220023FFF74FFA002800D0E4E078
:1030600000230B93229B5B0500D40626002430230B
:1030700007E0172106AA013452181355013E202CEF
:1030800001D0092EF5D81E981F99FFF779FAA84BA1
:10309000F2009B181A685B68050008920993FFF715
:1030A00057FA02000B001E981F99FFF7B2F9089A11
:1030B000099BFFF7DEF906900791FFF785FA814635
:1030C000FFF742FA02000B0006980799FFF7A1F9F3
:1030D0000022984B06900791FFF724FA002800D1B0
:1030E0000DE101239C46E1444846FFF72DFA02001A
:1030F0000B0008980999FFF705FA002802D0002371
:1031000099460135002E00D1D9E006954D46B946C5
:1031100014E006AA944617230A21634428000134C8
:103120001F19FEF73BFF3031397028000A21013E9C
:10313000FEF734FF092D00D817E10500202CE8D157
:103140004F46069D20240CAE06AA172394466344DE
:1031500099465B46B34606930FE04B4628000A218A
:103160000134E618FEF7F2FE3031280031700A21F2
:10317000FEF7ECFE051E00D1E4E0202CEDD1069B0D
:103180005E469B460323229A1340012B18D1219BB4
:10319000002B15D00B9B002B00D1FDE0219B013BA8
:1031A0002193202B0CD93023219A07E0172006A960
:1031B000013409180B55944200D3CCE0202CF5D1F2
:1031C000229B01940393219B0096029322E0229B71
:1031D00052460493219B3900039358461E9B1F9C23
:1031E000029600930194434600F04AF9040020003F
:1031F00015B0F0BCBB46B246A946A046F0BD229B26
:103200005B070FD403224C4B229901920391219921
:10321000009302914346524639005846FFF790FD0D
:103220000400E4E70422454BEEE71E9A1F9B0020B2
:103230000021FFF7EEF801231E901F910B9311E779
:10324000229B54469B0711D1219B042B0ED9219B15
:1032500055469C465E46043C64442A00434601357C
:1032600039002020B047A542F7D1B346344D26009F
:103270002B1F99465B46A3461C003200E878434664
:103280003900013DA04701364D45F6D123005C468B
:103290009B46229B04349B07A9D55346219AE31AE7
:1032A0009A42A4D95E4615002200434639002020E8
:1032B000B04753460134E31A9D42F5D897E72800FA
:1032C000FFF746F902000B001E981F99FFF7A1F8BF
:1032D0000022184B06900791FFF70EF90CAE00285C
:1032E00000D031E7069807990022124BFFF71AF930
:1032F000002800D028E7012301359D4324E7002260
:10330000069807990B4BFFF7F7F8002800D0F9E66D
:103310004B46002B5CD101239C46E144F2E6C046BB
:10332000FFFFEFFFFFFFEF7F65CDCD4165CDCDC145
:1033300060CD05100000E03F8096051078960510DE
:1033400088960510069B5E469B460323229A1340EF
:10335000012B00D181E0202C00D131E70B9B002B09
:1033600027D02D23335501342AE74F46069D202CC4
:1033700000D1E7E63022331907E0172006A901340F
:1033800009180A55202C00D1DCE6A342F5D12E22E3
:103390000CAE0134F254D7E60C23229A134257D0D4
:1033A000219B013B2193A34200D9FCE6202C00D1B4
:1033B00006E7229B5B0703D52B2333550134FFE639
:1033C000229B1B0700D4FBE6202333550134F7E68C
:1033D000DB0700D496E69EE7229B55469B0711D15A
:1033E000219B032B0ED9219B54469C465E46033DF0
:1033F000654422004346013439002020B047AC42E6
:10340000F7D1B346B9465F461C4EEC1C2A00B07893
:10341000434649460135B847013EAC42F6D1229BAE
:10342000BB464F469B0700D4E1E65346219AE31A78
:103430009A4200D8DBE65E4615002200434639007A
:103440002020B04753460134E31AAB42F5D3CEE611
:10345000219BA34200D9A6E6B2E6219B002B00D116
:1034600079E70B9B002B97D0219B013B21939C423A
:1034700000D298E6202C00D073E7A1E684960510D0
:10348000F0B5DE4657464E464546E0B599B0814612
:103490008B4692469846229A239B10001900FFF70C
:1034A00046F8002800D0CAE0229823990122824BD6
:1034B0005242FFF737F8002800D0C0E02298239945
:1034C00001227E4B5242FFF717F8002800D0B6E0E9
:1034D0002298239900220023FFF70EF8002800D03D
:1034E000C9E1229B239C0893099408980999802399
:1034F000269ADB001A400D928022269C120114406D
:1035000022000B94269C07000E001C4200D0ADE068
:103510000B00034300D0D5E0002A00D00AE22200CD
:1035200006332493022313400C930223134200D04A
:1035300002E2259B042B00D20FE2043B0B930023F5
:1035400004250A930022229823990023FEF7D4FF32
:10355000002800D003E25A4B269A134004930B9B99
:103560000393249B0293089B099C00930194594662
:10357000434652464846FFF72FFD02002020269B77
:103580001F27034059424B415B421840531C08938C
:10359000594643464530C8470A9AD317D4185C4069
:1035A000D30F0A936B1E0B9308AB9C460025674410
:1035B00001E0202D0FD020000A21FEF7EFFC01359D
:1035C0007E193031317020000A21FEF7E7FC260019
:1035D0000400092EEDD8052306930B9B594605934D
:1035E000002304930A3303930A9B4846029310ABCB
:1035F0000093089A43460195FFF7F8FB0C9B002BBC
:103600002DD05346C41A259BA34228D94D465F4668
:1036100081461E00534639001A19202043460134C2
:10362000A847A642F6D8534648462599C21A013201
:103630000023914200D386E1013018180FE0269B49
:103640000493259B0393249B0293229B239C00932A
:1036500001944346524659464846FFF7BDFC19B00F
:10366000F0BCBB46B246A946A046F0BD01432BD1F3
:103670000B9B2200002B00D154E700230A93249BCC
:103680000A9A0024934200DD85E1229823990022C2
:103690000023FEF731FF002800D035E1269B084AC1
:1036A00002941A408023DB0013430493259B039369
:1036B000089B099CCBE7C046FFFFEF7FFFFFEFFFB2
:1036C000FFF7FFFF06232493B44B70009C46400D88
:1036D0006044FEF73DFFB24AB24BFEF7CAFEB24A63
:1036E000B24BFEF79FFE3603B14B360B334304005B
:1036F0000D00380019000022AE4BFEF78AFEAE4ADC
:10370000AE4BFEF7B6FE02000B0020002900FEF7CC
:1037100089FEFEF735FF0A90FEF71AFFA84AA94B6B
:1037200004000D00FEF7A5FE0022A74BFEF77AFE6F
:10373000FEF726FFA54A0600A54B20002900FEF74C
:1037400098FE040030000D000C96FEF701FFA14A20
:10375000A14BFEF78EFE02000B0020002900FEF7B1
:1037600058FE02000B0006000F00FEF782FE32003A
:1037700004000D003B0030003900FEF753FE00222C
:103780000E900F91954B20002900FEF754FE002269
:10379000934BFEF747FE02000B0020002900FEF7C6
:1037A0004AFE00228F4BFEF73DFE02000B00200078
:1037B0002900FEF740FE0D008021040032003B008E
:1037C0000020C905FEF725FE02000B00200029009D
:1037D000FEF728FE02000B000E980F99FEF72BFE55
:1037E0000022734BFEF71EFE7F4B0C9C9C466444EC
:1037F00000222305FEF73DFE06000F0002000B002D
:1038000008980999FEF778FE00280AD00A9B300034
:10381000013B39000A930022714BFEF70CFE0600B3
:103820000F000A9A330063323900C62A12D80222E6
:103830002698042510400B9A0C90002A25D1259B30
:10384000042B05D9002800D0A1E0259B043B0B9355
:10385000042541E00222269810400B9A0C90002A81
:1038600012D1259B052B76D9002872D1259B0525E1
:10387000053B0B9334E0802212069446229B08936A
:10388000239B6344099330E605250B4300D1F6E6FC
:1038900008980999554A564BFEF73CFE002808D077
:1038A000089809990022534BFEF726FE002800D005
:1038B000E5E6249B002B1CD00D9B002B19D0249BEC
:1038C000013B2493259BAB4204D90C9B002B5AD07F
:1038D00002230C9300230B930A9B002B00D131E6AB
:1038E0000898099932003B00FEF7A5FD0890099160
:1038F00028E6259BAB42EDD90C9B002B43D000233F
:103900000B9302330C93E7E78020269B3A4A00068C
:103910001A40802384460294089C099D2900DB00FC
:1039200013430493259B6144220003930B000092F0
:1039300001938EE60524A8E600230B930A93023335
:1039400004250C93FEE553468C46013B63441B1A49
:1039500072E602230C930525C2E70423EDE58020DF
:10396000089E099F000639008446269A224B61442E
:10397000134004930B9B32000393249B02930B0090
:1039800000920193F3E5259B5B1B0B93A4E70223B5
:1039900004250C93A0E79C1A013C76E601FCFFFF8E
:1039A000FB799F501344D33FB3C8608B288AC63F2E
:1039B0000000F03F0000F83F61436F63A787D23FEC
:1039C00071A379094F930A400000E03F1655B5BB3B
:1039D000B16B0240EF39FAFE422EE63F00002C4068
:1039E0000000244000001840FF0300002D431CEBA2
:1039F000E2361A3F80842E41FFF7FFFFF0B5DE4626
:103A000057464E464546E0B5A5B01E002E9B924651
:103A10000C93CD4ACD4B80468B461A60002900D1CD
:103A2000EAE1002330789946002800D1ECE1C84B48
:103A30004C460B93C74B454657460E930AE0631C12
:103A4000984622003B005946A84744463078002853
:103A500000D187E001362528F1D108239A46043B9E
:103A60009946023B9846013B00229C460D943078D3
:103A7000711C0300203BDBB2102B03D80B9C9B0076
:103A8000E3589F460300303B89460D9C092B3AD9E9
:103A9000002398462A2800D1C1E000239A462E2808
:103AA0004BD00300683BDBB2122B1ED80E999B0053
:103AB000CB589F4663460E001A43D8E743460E0094
:103AC0001A43D4E74B460E001A43D0E710230E00EA
:103AD0001A43CCE753460E001A43C8E780235B0025
:103AE0001A43FF3B9C467078E1444E4667284FD806
:103AF0002428A4D90300253BDBB2422B9FD896494A
:103B00009B00CB589F46002394461E0000E00131E5
:103B1000B3009B195B001E180878303E0300303B51
:103B2000092BF4D90123624689469C460023B046FE
:103B30009A460E00E1442E28B3D13021802049421C
:103B40008C46C000024370784B4684446146092984
:103B500000D86CE12A2800D17AE101239C464E4628
:103B6000E1449EE7A146A846BA46CA4503D80123C8
:103B70005B425344994653464A4659460020C04743
:103B8000200025B0F0BCBB46B246A946A046F0BD19
:103B90000300693BDBB20D930F2B00D94FE70121E6
:103BA00099408C466D49894661464B4619400F91B4
:103BB000634649460B4200D028E10D9B0A2B3AD0C0
:103BC000072B00D03BE70C9B190008C98846002B47
:103BD00000D14BE121200243914614A98C461F22BB
:103BE0000F2162448C4651460D950C91A24615005A
:103BF0000F9902E020290CD0130064461C402000DD
:103C00003730092C00D80738013168541A090F2BB6
:103C1000F0D80C9B54460D9D9A460F9133E10C9BB6
:103C200002CB8846002947DB0C9301239C46707821
:103C30004E46E14431E70C9B02CB14935346002BD4
:103C400000D138E19C4608780B000C908C44002889
:103C500001D100F098FC89466146944603E05A7809
:103C60000133002A01D08B42F9D1494662465B1AE2
:103C70000C900F93530500D520E10223180010404B
:103C80000D90134200D1CBE30D930B1BB1469A4626
:103C90005E460C9822003B003100A8475346013491
:103CA000185D0028F6D1B3464E460D9B002B00D080
:103CB000C7E1149B0C93C9E60C9301239C4628385A
:103CC00049420243884670784E46E144E5E6707802
:103CD0006C2800D17FE180235B001A43FF3B9C46A8
:103CE000E14402E780239B001A4301239C4670783D
:103CF000E144FAE67078682800D173E180231A4322
:103D00007F3B9C46E144F0E6672800D103E1472869
:103D100000D15AE1452800D15AE1049207214246D8
:103D20000C9B0392073352468B43190002920CC935
:103D30002800009201930C9122003B005946FFF7A6
:103D40009FFB040082E6C046FD390210CC6C0020C7
:103D5000C0CB051004CC051050CC051041900000DC
:103D6000462800D1DBE00492072142460C9B0392D7
:103D7000073352468B43190002920CC92800009267
:103D800001930C9122003B005946FFF725F90400EE
:103D90005CE6631C984622003B0059462520A84754
:103DA000444653E60C9B04330D93631C99469207DB
:103DB00000D422E10C9B2200187859463B00A8470A
:103DC00043464444012B00D885E23300B8462E0018
:103DD0005F4625004C46994622004346013439008F
:103DE0002020B047AC42F7D12C00BB4635004746F7
:103DF0004E460D9B0C9329E6DB4B3078984600230A
:103E00009946002800D012E60024AEE66F2800D1C3
:103E100088E000D80BE31023782800D1CFE09A4344
:103E20000A239C4600230F930A330D9380E05646E5
:103E3000B1008919490001330E181878303E01008D
:103E400030390929F4D9B2461E000133994628E6D3
:103E50000C9B023602CB8A46C9435046C91708401C
:103E600082460C933078731C99461AE61023100092
:103E7000984311331843814680201300C00003404B
:103E8000024200D1A9E64B46069308230593534608
:103E9000049310230393002302930F9B22000193AA
:103EA0001CAB009359463B002800FEF79FFF43469A
:103EB00004000C93CAE501235B42C3E60F9B534504
:103EC00001D953460F930223180010400D9013425E
:103ED00000D1B7E10D93D1460B1B9A463300A144A4
:103EE0002E0022004D460C98B9465F469B4608E0DE
:103EF0004B463900541CB0475346185D002877D014
:103F000022009542F4D15B46BB464F46A946350098
:103F10004C461E00C9E680231B011A43FDE6202300
:103F20001A4320E708239C4600230F9308330D9380
:103F300080231100DB0019401A4200D116E10D2345
:103F40009A431000802302009B001A4014921842EA
:103F500000D0C2E1802302005B001A4091460C9A17
:103F600004320F92184200D0B7E2430600D59FE119
:103F7000030600D419E30C9B1B880993002B00D087
:103F8000FCE110339843002900D1F7E10023994662
:103F900043460593534604930D9B069003930023D9
:103FA000D2E0582808D0622867D102239C4600231B
:103FB0000F9302330D93BBE720231A43103B9C461B
:103FC00000230F9310330D93B2E780231B011A4394
:103FD00020231A43A1E6C0239B001A43F31C9946F1
:103FE000B07882E5C0231A43F31C9946B0787CE58B
:103FF00035005E46BB464F4657E64346012B00D888
:1040000063E1631E43449A463300B9462E005F467F
:1040100055469B46A24622004B46013439002020DB
:10402000B047AC42F7D135005E46BB464F46A1468D
:1040300054460C9B4A46187859463B004444A847CE
:10404000D7E6A1460F9B984500D832E64444E41ACF
:104050003300B8462E005F4625004C4699462200A4
:104060004346013439002020B047AC42F7D12C0040
:10407000BB46350047464E461BE680231000DB005A
:1040800018401A4200D10FE1112118008A430D9205
:104090000D9A802311009B0019408C461A4269D169
:1040A000802311005B00194089460C9904310F915F
:1040B0001A4200D0CAE113005B0600D5F0E01300FD
:1040C0001B0600D459E20C9B00229B5ED9175A189C
:1040D0004A4092B2D90F0C91002B00D1F9E11000A7
:1040E00014AA944642461F23149252466344A8469B
:1040F00016944D460400B946B2461F00159201E0E1
:10410000202D0FD020000A21FDF748FF01357E1930
:104110003031317020000A21FDF740FF26000400F5
:10412000092EEDD8149B4F46A94645469846159B47
:1041300056469A46169C0D9B069343460593534656
:1041400004930A2303930C9B02934B4601931CABED
:104150002200009359463B002800FEF747FE0F9BC4
:1041600004000C9372E4C0463D2D02100C239A43C8
:104170001000E7E607220C9B073393430132944675
:104180009C4462460C920CCBD90F0F91110019433D
:1041900000D191E0D91713911291514010911399C8
:1041A0005940119110981199129A139B801A9941B4
:1041B0001090119114AA00239446424699461492F5
:1041C00052461F336344A846B24616944E46109C8E
:1041D000119DB94615921F0001E0202E10D020003D
:1041E00029000A220023FDF717FF013630322B0089
:1041F000BA550D0022000400002BEED1092AECD89C
:10420000149B1094119545469846159B4F46B14610
:1042100056469A46169C0D9B069343460593534675
:1042200004930A2303930F9B02934B4601931CAB09
:104230002200009359463B002800FEF7D7FD0400FA
:10424000FFF704FC0F9B984500D8C1E18023DB00F9
:104250000D9343460F9A1B199B1A994633002E0063
:104260004D46B9465F469B460C9122004B460134B1
:1042700039002020B047AC42F7D143460C990133B6
:104280000F930B7835000C935E46BB464F46002BD0
:1042900000D10EE50D9B002B00D1F6E4002319E6BA
:1042A0000C9B1B781A0015E710239A430D92EFE63A
:1042B0000C9B1B78099361E6002399460028AAD13C
:1042C000002200231092119374E70C9B22001878AF
:1042D00059463B00A8474C468BE50C9AFA3BFF3BFE
:1042E00007329A430133994691444B460C93136825
:1042F000526815921A4306D1103290430022099257
:10430000002900D081E06122810600D54122D2B28D
:104310000A9214AA91460A9A00210A3A1492424635
:104320001792524618925A460991B3461F311E0001
:104330000F9B4944BA4619941A950024674698463B
:104340008946159D16901B920AE03032D2B24B4638
:1043500001341A55A8454AD0202C4AD006000D0039
:104360003A00002330002900FDF756FED2B2092A98
:10437000EBD9149B9C466244D2B2E8E761238206E3
:1043800000D54123DBB20A3B0C93434614A91F22FC
:104390008C46159353466244A046B2464C46179746
:1043A000A9461700099D0D9E1490169308E030331E
:1043B000DBB201343B55B5420ED3202C0CD00500A6
:1043C00031002800FDF7EAFDCBB20929EFD90C9A9C
:1043D00094466344DBB2ECE7159B4D46A146444648
:1043E0009846169B564614989A46179FD0E5B742B2
:1043F000B2D9179B57469846189B5E469A461B9B18
:1044000009949B461698199C1A9D4346059353465A
:1044100004930D9B0690039300230293099B05E7E9
:104420000F9B984500D914E701330F932DE4102317
:10443000110099430D91692800D0BAE08023100043
:10444000DB0018401A4200D122E61DE60C9B1B68D7
:10445000DA0F1100002B00D18CE0DA1798185040C9
:1044600014AA914642461F23149252464B44A0463A
:10447000A946169704006546B2461F000C91159296
:1044800001E0202D0FD020000A21FDF787FD013526
:104490007E193031317020000A21FDF77FFD2600A2
:1044A0000400092EEDD8149B444698460C9BAC465C
:1044B0001900159B56464D469A46169F0D9B029134
:1044C000069343460593534604930A230393634696
:1044D0003CE6002800D02EE602E60C9B1B689946BD
:1044E000002B03D110339843002938D16123820671
:1044F00000D54123DBB20A3B0C9343461693534647
:1045000014A91F228C4617932B006244A0464D46E7
:10451000B246189799461700149C0D9E159008E016
:104520003033DBB201343B55B5420ED3202C0CD0D6
:10453000050031002800FDF731FDCBB20929EFD984
:104540000C9A94466344DBB2ECE7169B1494444601
:104550009846179B56464D469A461598189F4346CF
:104560000593534604930D9B0690039300230293F7
:10457000149BEBE50028A1D172E70C9B1B68D917AF
:104580005A184A40A6E580231000DB0018409C46DC
:104590000F901A420FD00220030013400F931042D5
:1045A00019D00023A1460F934CE50C9B1B6809937F
:1045B000E4E40A0034E40223180010400D90134292
:1045C00000D03EE54346002B00D042E6FFF771FBEA
:1045D00001330F937FE463460D93F3E70EB401229A
:1045E00030B584B007AC08CC064D0100009428001B
:1045F00052420394FFF702FA04B030BC08BC03B087
:104600001847C046352D02100CB430B585B008AC43
:1046100008CC064D0A000094010028000394FFF71F
:10462000EDF905B030BC08BC02B01847352D0210BA
:1046300010B50C0084B00394012402A902900093E9
:10464000034813006242FFF7D9F904B010BDC04619
:10465000C92F021010B5094A0300146884B0002C59
:1046600008D0012200910648524203A9A047012028
:1046700004B010BD00F0B4F90020F9E7CC6C0020C4
:10468000B92F021000BEFDE7094A03001068002898
:1046900005D00849C3188B4207D8136070470648F5
:1046A0000449C31810608B42F7D901204042F5E756
:1046B000245C00200000042068F1012010B5FFF701
:1046C000E1FFC04670B5FDF7F3FA074D074EB5425E
:1046D00009D20024013E761BB60808CD9847230076
:1046E0000134B342F9D170BD0C0D00201C0D002027
:1046F000030010B5080011001B68984710BDC046A4
:10470000F0B5C64600B5437D07000C001600002B2F
:1047100046D0002A17DD0B780A2B24D000239846B8
:10472000012E13D001252900635C01350A2B26D008
:10473000B542F8D1464509DCA419013C23780D3B6C
:104740005A4253413B7580BCB846F0BD4346E01821
:10475000A419F11A013C3B68984723780D3B5A4253
:1047600053413B75EFE7037D002BD7D102210F4862
:104770003B689847012EDFD001239846D2E7631E9D
:104780005B5C0D2BD4D0884504DA4346C91AE01887
:104790003B689847022105483B68A8469847C7E709
:1047A0000368110020009847CDE7C046B0CD051042
:1047B000F0B5C6460B6806000C0000B5802B06D08D
:1047C0005A1C2260E418267180BCB846F0BD0F4B1D
:1047D0001D68002D16D00B1D98460D4F02E02D6967
:1047E000002D0FD02B68002BF9D03B68002B01D097
:1047F000AB42F4D1280041462268FFF781FF2D69C2
:10480000002DEFD101220023DBE7C04650530020EA
:104810005C530020F0B54546DE464E465746E0B5AF
:1048200083B091461C0080460D00FCF7C1FE0023BA
:10483000304A12184B41002B02DA01222E4B524211
:104840002E4908008A4634F01FFE07006B1C03D176
:10485000404634F057FC0500002C27D0284E294B49
:104860001C68002C18D04B46002B21D1264B9946B2
:1048700002E02469002C0FD02368002BF9D04B46AE
:104880001B68002B01D09C42F3D120002A00414636
:10489000B0472469002CEFD1002F26D1280003B0A7
:1048A000F0BCBB46B246A946A046F0BD174ED6E7BF
:1048B000154B99460A239B4602E02469002CEBD055
:1048C0002368002BF9D04B461B68002B01D0A34274
:1048D000F3D12A0041462000B0476B465A462000DB
:1048E000DA71D91D0122B047E7E7504634F0A4FD44
:1048F000D4E7C04640420F00FFFFFF7FC80C0020F6
:1049000001470210505300205C530020F146021072
:104910000A4A1368002B05D10CE01A001B691032FB
:10492000002B07D08342F8D1002902D1186910600A
:10493000196170470029FCD01060FAE7505300203D
:1049400010B500F0ABF9012010BDC046F0B5CE4661
:10495000474680B583B06B460600DD1D2870FCF726
:1049600027FE0023194A12184B41002B02DA0122BC
:10497000174B524217490800884634F085FD164B04
:1049800081461C68002C14D0144F02E02469002CCE
:104990000FD02368002BF9D03B68002B01D09C423C
:1049A000F4D1200001222900FFF7AAFE2469002C7F
:1049B000EFD14B46002B05D1300003B0C0BCB94647
:1049C000B046F0BD404634F037FDF5E740420F00F9
:1049D000FFFFFF7FC80C0020505300205C530020D5
:1049E00070B5040034F08EFB0123010005000122A4
:1049F0002000FFF70FFF084B1C68002C06D06368EF
:104A0000002B05D098472469002CF8D1280070BDF0
:104A10002469002CF3D1F9E750530020F0B5CE46BD
:104A2000474680B5A3B004000D00FCF7C1FD00238C
:104A3000274A12184B41002B02DA0122254B524221
:104A4000254E300034F020FD0023220001930700A2
:104A50002B00224801A9FFF7EBFD214B8046994628
:104A60001C68019B002B1AD0002C2FD01D4D02E09A
:104A70002469002C0FD02368002BF9D02B68002B61
:104A800001D0A342F4D12000019A02A9FFF738FE19
:104A90002469002CEFD14B461C6800230193002CA5
:104AA00006D06368002B0BD098472469002CF8D1FE
:104AB000002F07D1404623B0C0BCB946B046F0BD78
:104AC0002469ECE7300034F0B7FCF3E70194EFE73A
:104AD00040420F00FFFFFF7FC80C0020B1470210CB
:104AE000505300205C5300200FB400B583B004A9DC
:104AF00001C90191FFF792FF03B008BC04B0184749
:104B0000F0B5002915DD0E4B0D271A680D4B0E4C24
:104B1000D3185D426B41451820215B001E5F04786D
:104B2000A64207D093691942FCD101301460A84213
:104B3000F5D1F0BD93691942FCD11760F2E7C04688
:104B4000247000200080FCBF20700020204B70B536
:104B500004000D1E1E682ADD002010211D4B013CA3
:104B60001A689369194214D1013093691942FCD132
:104B7000136823548542F4D1002E08D05023936348
:104B8000516B183B0B4014498C466244136028005B
:104B900070BD002E08D050239363516B183B0B401F
:104BA0000D498C46624413600028F1D10CE0002EC0
:104BB0000AD05022074B1B689A63596B183A0A4077
:104BC00005498C4663441A6003204042E0E7C04632
:104BD000A43D00202470002034100000064B10B5C6
:104BE0001B68002B06D00021044A12689163044A16
:104BF0001068984710BDC046A43D002024700020D6
:104C0000A83D00200822034B19688B691A42FCD189
:104C10007047C04624700020F8B51A4F1A4B3A6806
:104C20000500D31858424341184E14331C00336812
:104C3000002D02D0002B0FD0F8BD002BFCD000219E
:104C400020009563FBF732FE20001149FBF776FE4A
:104C5000104B35601D60EFE70E4B200019600C49CA
:104C60003560FBF741FE01212000FBF71FFE5022BB
:104C70003B689A63596B183A0A4007498C4663446B
:104C80001A60D9E7247000200080FCBFA43D0020FA
:104C9000DD4B0210A83D0020341000000D4B10B574
:104CA0001B780D4B0D4C1B780D4B02211B780D4BC7
:104CB00000202360FBF75AFD02210120FBF756FD7F
:104CC000E12120680903FCF75BFF01210648FFF79B
:104CD0001FFE10BD1C2D0610182D0610247000207C
:104CE000142D0610004003401006002070B50F4C34
:104CF0000F4D104A24184D41A900A00F0843A90FD9
:104D000069400D4B6040FDF76DFF4A01C30E134330
:104D1000CA0E58405140094B094AFDF763FF4A004B
:104D2000C30F1343CA0F5840514070BD157C4A7FD2
:104D3000B979379EB9E5E41C6D4758BFBB49D0949B
:104D4000EB113113F0B504684568060023002A0012
:104D5000C6468068F16803430A4300B5134304D193
:104D6000FCF726FC03000B43FAD023062A0A604016
:104D70002F061A43230A3B43070CBC4669404B40AD
:104D8000984663460F041F43424003045A4043467B
:104D90007B4032607360C20E4B011343C90E400169
:104DA0000843B360A10FAB000B43A20012196B4183
:104DB000F060D101580E520EDB0108431A43040083
:104DC0001500430FD1001943C0000019694180BC90
:104DD000B846F0BDF0B5DE4657464E464546E0B50E
:104DE000AD4C97B005942478002C00D1D5E00EABE3
:104DF0000D93AA4BAA4F0293AA4BAB4D9B465B4621
:104E00001E685C689B680B935B46DB680C93A74B42
:104E100005931B78DBB20693FCF7CAFBFFF766FF2E
:104E2000A34B70409B69614008900A91DB0433D525
:104E3000A04BDA6BE0231340402B2DD0EFF305831A
:104E400099469D4B3E68984600239A462B004D4656
:104E50007C68994630002100002D1AD0FCF7E6FB53
:104E6000EFF3108272B643461B68002BFBD0BFF3F2
:104E70005F8F3B68B34212D0BFF35F8F434651460A
:104E8000196082F310883E687C6830002100002D94
:104E9000E4D1FCF781F9E3E7FCF704FFCEE77B6898
:104EA000A342E9D1824B1400DE69FCF781FB0A22A0
:104EB0000023801859414D4602000B1E02DA0122E0
:104EC0007E4B52420CC72A686B68100019000127FC
:104ED00080185941374007430022009001912F600C
:104EE0006960BFF35F8F744B1A6084F31088744954
:104EF000029B8C461B787349DB00634498688842A8
:104F000049D00021FFF7F2FE089D0A9C45404C4025
:104F1000EFF3108672B6684A1368002BFCD0380095
:104F20000199FFF7E3FE0B9B58400C9B5940BFF3E0
:104F30005F8F059B069A1B78934208D05B460CCB8B
:104F40005C405B4655409A68DB68504059405F467C
:104F50000D9B0E955C609860D9601800FFF7F2FE1B
:104F6000109A119B0E9C0F9DBA60FB60059A3C60E5
:104F70007D6013780133DBB21370BFF35F8F0022C3
:104F80004D4B1A6086F3108817B0F0BCBB46B24692
:104F9000A946A046F0BD9A60B3E74B4B0090019143
:104FA0009C464A4B4A4C9846A14665682468A10D28
:104FB000AB02A2020B4310001900001969410290D4
:104FC000039102990027890E8A460399890101916C
:104FD0005146019808430299019089010091009877
:104FE0000199001BA9410D006146040040C98C468F
:104FF000A4197D414145DAD14B461C605D600EAB82
:105000001800069407950D9300F02EF90E9B0F9C47
:1050100008930994264B9B69DB0400D4FAE0254BE6
:10502000DA6BE0231340402B00D1F3E0EFF305836C
:105030009A46402300249B460023009301941E4B74
:105040005C469846164F0023994653463D687E6855
:10505000A24628001C003100002C1AD0FCF7E6FA0A
:10506000EFF3108272B643461B68002BFBD0BFF3F0
:105070005F8F3B68AB422DD0BFF35F8F43464946FD
:10508000196082F310883D687E6828003100002C8A
:10509000E4D1FCF781F8E3E761F101204BF1012055
:1050A000D80E0020300D0020200D00204CF10120F2
:1050B0000000064000800040300100D0FFFFFF7F6D
:1050C00000000340FFFFFF00001C0420002004201C
:1050D000280D00207B68B342CED123001600544631
:1050E0009A46009A019B1000190080185941504BB4
:1050F000DA6901231340034300930191FCF758FA46
:105100000A2200238018594102000B1E02DA0122F4
:10511000484B52423A607B60012C66D1464DA34613
:10512000009B019C2B606C60BFF35F8F0023434C9E
:10513000236086F31088FCF73BFA80468946EFF33C
:10514000108672B62368002BFCD0BFF35F8F059BDF
:105150001B78002B52D13A4BDA681F2A5DD05A696E
:105160001F2A5CD0DA691F2A5FD05B6A1F2B59D0D7
:10517000FCF798FDFF23FF223249DB000A70324A18
:105180000291944600980199052263445A60FFF702
:10519000ADFD82460C0006980799FFF7A7FD534620
:1051A000614058401290139140464946FFF79EFDDA
:1051B00080460C0008980999FFF798FD434658402F
:1051C0006140149012A81591FFF7BCFD1498159931
:1051D0001E4B9B46129A139B5C4622606360012320
:1051E000059AA060E16013700CE0BFF35F8F0023AD
:1051F0004246136086F31088013C24E7114B02936A
:10520000124B9B46BFF35F8F00220C4B1A6086F354
:105210001088F4E5FCF746FD08E700239B465B4653
:10522000DAB2A9E71C3B9B46F9E702239B46F6E767
:1052300000000640FFFFFF7F200D0020300100D05E
:10524000000003404BF1012008000340300D002016
:1052500010B5FFF7BFFD10BD10B5024800F00CF807
:1052600010BDC046B06F002010B508220149FDF7FF
:105270005BFD10BDB06F002010B588B004000D229A
:1052800000216846FDF74AFD0D22002104A8FDF724
:1052900045FD4B236A466846137004A90D2234F07D
:1052A000C3F81521082220006944FDF73DFD08B030
:1052B00010BDC04610B5034B01001800FBF702FA01
:1052C00010BDC04634F1012010B5064B064C82B02B
:1052D0000100009300220B232000FBF7AFF902B07E
:1052E00010BDC046BC96051034F10120054B10B529
:1052F0009C466044000D800041180348FBF7E2F92A
:1053000010BDC0460000E0AFB43D002010B50A4B10
:105310000A4AC418240DA40082B000920848220052
:10532000E31CFBF78BF9844202DC001B02B010BDCA
:1053300001204042FAE7C0460000E0AFDC960510CD
:10534000B43D002070B50D000400FBF73FF91A4A88
:105350001A4B944601226444240DA400E65805210A
:105360002C792023A2406956013A1B1B002913DB2C
:1053700000248B420CDB13008B401E4208D1AB791A
:10538000002B05D18A401400344063425C41E4B2F2
:10539000FBF728F9200070BD002B02DA09E0013B81
:1053A00007D314009C4019002642F8D1AB79002B9A
:1053B000E8D00024ECE7C0460000E0AF943C0020B9
:1053C000F0B557464546DE464E468846E0B583B0C2
:1053D00006000525FBF7FAF8434684465D57187921
:1053E000334B344AF3181B0D9B009246D7580122C9
:1053F00020248240241A013A002D41DBA54232DCF0
:105400001100A9400F422ED1414609688946414604
:105410008979002945D12C00AA40934659463A4043
:10542000394241D1802189018846002816D0614641
:10543000A44634004E469946030001915100705A2B
:10544000404500D24019A918123189000132085193
:105450009A42F3D3019B64469C464B465A461743F7
:105460005246D75001E0012464426046FBF7BAF887
:10547000200003B0F0BCBB46B246A946A046F0BD32
:10548000002C02DA10E0013C0ED31100A1402500EF
:105490000F42F8D141460968894641468979002979
:1054A000BAD014246442E0E709246442DDE7C04630
:1054B0000000E0AF943C002070B501250B7904009A
:1054C0009D40013D9540FBF781F8054B0549E318E8
:1054D0001B0D9B005A58AA435A50FBF783F870BD26
:1054E0000000E0AF943C0020F0B5DE4657464E4643
:1054F0004546E0B51600DC22924685B01C004B0004
:1055000002935B18DB00C518AA4452468346280064
:105510001268CC30009202682B0001921B4A802056
:105520009446800263441860002C1CD08023DB0466
:1055300099460123D83598462B0055469A46144F74
:1055400003912000FCF7FCFC4A46430113432B6007
:1055500033004246C340134052463B431360631E30
:105560001C40EED10399029B5B18DB005B441A00E0
:105570000099DC321160019ACC331A6005B0F0BC9E
:10558000BB46B246A946A046F0BDC046CC3000009E
:1055900080E00000F0B54E464546DE465746E0B591
:1055A00083B089460CA984460D781F2A45D8494600
:1055B000490088464944C900461837003400DC37A2
:1055C0003868CC3483462068310001901C48802420
:1055D0008246A40251440C6069424D411E216D4235
:1055E0008D4318498A465544052B0CD9A0201F210C
:1055F0004005D836540104430532053B3C600A405F
:105600003560052BF6D852019B06134342464A44A7
:10561000D20062441000DC3213600300D8331D60F6
:105620005B461360019BCC300360002003B0F0BCEC
:10563000BB46B246A946A046F0BD05204042F5E76C
:10564000CC3000009FE00000F0B5C646431E00B518
:105650000A3314D8072304001A00083422402342D6
:105660006CD01300093BA34209D31030841A01F017
:10567000CFFE374A27001568002D28D10EE001F033
:10568000C7FE334A1368002B06D0002503F056F9F5
:10569000280080BCB846F0BD0027002407202D4D0F
:1056A0002B002900284245D100202B4E706031602C
:1056B0002A4EB44607266544B5431560284AEB1ABE
:1056C0001360284A6860286013604B600D60002FEB
:1056D000DBDD244F3E68A642D7D31F48036804E0B1
:1056E0001A68002A04D0180013005968A142F7D3A1
:1056F000AB42CAD01D001A680835904602600A1BEA
:10570000102A05D919194A6042460A600160210031
:10571000134A761A10683E60864200D216608022D4
:1057200012060A435A6000221A600F4A13680133B6
:105730001360ABE7EB1D83431900B5E701F068FE8A
:10574000034A27001568002DA8D0002CC1DA9CE779
:10575000186D002028700020F0F00120F87F010073
:10576000C0F00120B0F00120CCF0012070B500287D
:1057700004D0083843680400002B00DB70BD0268C9
:10578000002AFBD15B005B084360050001F040FE8E
:10579000184A616813685B181360174B1A001B687E
:1057A0009C42FBD850681618B4420DD06018834252
:1057B0001AD02360AA4200D01560104A1368013342
:1057C000136003F0BBF8D9E7091850185160834201
:1057D000F3D10B48150000689842EED058681B685A
:1057E000411869602B60E5E7054800688342F5D100
:1057F000DFE7C046B0F00120F0F00120D0F001203A
:10580000186D0020014B18687047C046B0F00120A9
:10581000014B18687047C046C0F001207047C04671
:105820000BA10CC9126892009B581868203080F3B5
:105830000988022080F31488BFF36F8F3FBCAE4607
:1058400008BC04BC62B61847C046C046C046C04645
:10585000000000D0086D0020D0231B061A6DD2076F
:1058600004D501219A6D1A6D1142FBD1D023FF227C
:105870001B061A658022024B52051A607047C0460B
:1058800004ED00E000000000000000000000000047
:10589000EFF309811AA00CC8106880001B18186863
:1058A00020390160F0C144464D4656465F46F0C17E
:1058B000146E556E566F176F3039F0C1106808B509
:1058C00072B601F03FFF62B60CBC11680868103078
:1058D000F0C8A046A946B246BB4680F309880D220F
:1058E00012073038F0C81466556656671767F0C857
:1058F0001847C046C046C046C046C046C046C0461F
:10590000000000D0086D002010B503F0A1F80400DD
:1059100001F0F2FD002803D08022034B52051A60EB
:10592000200003F023F910BD04ED00E010B5FAF7F4
:1059300047FEC04610B58024031F64041C60043B6E
:1059400019600349043B1960143B40381A6010BDCC
:105950002D5902108022044B52051A60BFF34F8F5D
:10596000BFF36F8F7047C04604ED00E0D0231B06E5
:105970001B6808499B005A58002A08D0002058503C
:1059800005495B58BFF35F8F106083F3108862B6E0
:105990007047C046A46F002030F00120EFF3108064
:1059A00072B6704780F310887047C046D02300223B
:1059B0001B065A657047C046002310B5084A094CBB
:1059C000052023601360FAF7DDFDFA218900FCF75A
:1059D000E5FA054B013818600723236010BDC04667
:1059E00018E000E010E000E014E000E070B5224BA9
:1059F0001A78D0231B061B689A4230D0FF231F4A17
:105A00001B0411680E200B4313601D4903F0BAFB01
:105A10000B201C4903F0B6FBD023FF221B061A659E
:105A20001A6DD20704D501219A6D1A6D1142FBD16E
:105A3000D0252D062C68FF210F342000FBF768F8D5
:105A400020001149FAF750FF01212000FAF72EFF3C
:105A5000FFF7E6FE286801F075FEFAF7B1FDFFF7E3
:105A6000ABFFFF23054A1B0611680F200B43136091
:105A7000064903F087FBC1E72806002020ED00E07F
:105A8000915802101D58021059580210095902105D
:105A900010B572B6FFF7AAFF10B50E20FAF73AFE5E
:105AA0000F20FAF737FE0022034B04481A70FCF768
:105AB0003BF8FFF79BFFC04628060020915A0210D2
:105AC00010B50A4B1B78FF2B0CD0EFF30580002894
:105AD00005D0D0231B061B684000C01810BD02F083
