:020000041000EA
:2000000000B5324B212058609868022188439860D860186158612E4B0021996002215961F5
:200020000121F02299502B49196001219960352000F044F80222904214D00621196600F0AA
:2000400034F8196E01211966002018661A6600F02CF8196E196E196E052000F02FF8012127
:200060000842F9D1002199601B491960002159601A491B48016001219960EB211966A0210D
:20008000196600F012F8002199601649144801600121996001BC002800D0004712481349E4
:2000A000086003C880F30888084703B5996A04200142FBD001200142F8D103BD02B51866AC
:2000C0001866FFF7F2FF186E186E02BD00000240000000180000070000035F0021220000EA
:2000E000F4000018222000A00001001008ED00E000000000000000000000000074B24E7A3E
:2001000000200420F7010010CB010010CD010010C9010010C9010010C9010010C901001071
:20012000C9010010C9010010C9010010CF010010C9010010C9010010D1010010D3010010D7
:20014000C1010010C1010010C1010010C1010010C1010010C1010010C1010010C10100100F
:20016000C1010010C1010010C1010010C1010010C1010010C1010010C1010010C1010010EF
:20018000C1010010C1010010C1010010C1010010C1010010C1010010C1010010C1010010CF
:2001A000C1010010C1010010C1010010C1010010C1010010C1010010C1010010C1010010AF
:2001C000EFF30580103800BE00BE00BE00BE00BE00BE00BEF2EB887190020010C4020010F0
:2001E0003802001090A31AE721482249086006C881F30888104720480068002801D01C48EF
:20020000F3E70DA40ECC002902D000F012F8F9E71A491B4A002000E001C19142FCD1194918
:200220008847194988471949884700BEFDE701C901C29A42FBD37047C4020010C000002047
:20024000C4BB0020C8BD0010D0BB0020E8E80020E0EA00100000042000000420E0EA0010D3
:20026000001004200010042000000000704700000000000008ED00E0000000D0E8E80020CA
:200280008435012039410020110100203141002040D700204CD7002058D7002064D7002002
:2002A00070D700207CD7002088D70020ACD90020A0D90020B4D9002098D9002090D90020E0
:2002C00084D90020F8B5C04606480749091A8B10C90FC91810B5491003D0044B002B00D09E
:2002E000984710BDE8E80020E8E8002000000000054B10B5002B03D00449054800E000BF26
:20030000FFF7E2FF10BDC04600000000C0340120C4BB002070B582B005F076FA040007F0C8
:20032000A5FD0A2000F0B8FF04F046F95F4D6048290004F015FA05F023FA05F03BFB012237
:2003400000210F2007F0BCFE0A2000F0A5FF0F2007F0DEFE00285FD12900564804F000FACF
:20036000002008F05DF9544804F020FD04F02CFD04F002FD04F038FD04F068FD05F044FA9D
:20038000CC23C35C01AD2B70FA232800DB006B800AF018FA28000AF029FA6B882A78474985
:2003A000474804F0DDF908F085F807F025FF642000F072FF02E0642000F06EFF07F02CFF8A
:2003C0000028F8D007F080FA07F0BAFA05F040FCC723E35C3B4D002B36D105F085FB07F091
:2003E000D1FC0021384801F0BFF90026374C08E006F0E6FC2B78012B01D109F03DF801F0BD
:20040000A9F92378002BF3D0267007F005FF0028EED106F091FFEBE7002007F035FA002873
:2004200019DB0E23FF33E05C01281AD02849294804F096F9642000F02FFF72B606F0A2FF50
:20044000234806F0A7FFFEE707F0BEFC04281DD101232B70C1E7012007F016FA0028E0DA74
:200460007AE707F011FA002819DB032007F040FF07F090F900280CDB0E230021FF33E1545C
:2004800022000120144B07F00BFFCFE705F0E0FBA3E7124804F0E0F806F066FFECE71048FD
:2004A00004F0DAF806F060FFE6E7C04638D70020A0BF0020C4BF002080F0FA0220D700207A
:2004C000E8BF00207635012030750000733501200000021060C000200405000044C000209C
:2004E00028C0002010B5052000F0F4F8014B186010BDC046C0EC0020F8B5DE464E465746C9
:200500004546E0B58B4605000A991800160001F0B1FB0A9B6C001F02324B64199C46A400C5
:200520006444636881469F4200D967602B1FDBB29846012B30D9C02380229B01E3181201E7
:200540001A60294BAD0059599A4600291BD17301E026226853401E40802342465B01E318E2
:200560001E60012A30D9802380229B01E31812011A6053464A4667605A51F0BCBB46B24620
:20058000A946A046F8BD586901F074FB013043001B18033BFDD2DAE75B46012BCBD1C023EF
:2005A00003229B01E3181A60023AA3681A42FCD07301E0262268AD0053401E4080230A4AFD
:2005C0005B019246E3181E605A462168514003220A401A6001225B469A40A3681A42FCD0FA
:2005E000C1E7C046008000405CEF0020F0B546464F46D646C0B51F00344B44009C462418CB
:20060000A4006444636888461600FF2B02D880235B006360031FDBB29A46012B30D9C02373
:2006200080229B01E31812011A60294B85005959994600291BD17301E026226853401E4060
:20064000802352465B01E3181E60012A30D9802380229B01E31812011A6080235B0063602C
:200660004B465F51E0BCBA46B146A846F0BD586901F000FB013043001B18033BFDD2DAE7E9
:200680004346012BCBD1C02303229B01E3181A60023AA3681A42FCD07301E02622688500F8
:2006A00053401E4080230A4A5B019146E3181E6042462168514003220A401A60012342466F
:2006C0009340A2681342FCD0C1E7C046008000405CEF0020014B8000C05870475CEF00203D
:2006E0000FB400B5084883B003F0B6FF049B002B07D005A91800019103F0E8FD034803F048
:20070000ABFF012003F0FAFD78C0002088C0002010B50148FFF7E4FF8CC00020EFF310809F
:2007200072B6034A1368002BFCD0BFF35F8F70472C0100D0BFF35F8F0022024B1A6080F382
:20074000108870472C0100D070B5EFF3108C72B60D4D2B68002BFCD0BFF35F8F0724CB0800
:20076000C618C05C01230C40A3401C000440034207D118433070BFF35F8F2C608CF3108871
:2007800070BD1000FFF7ACFF2C0100D0F8B54746CE46884680B5EFF3108C72B61C4D2C688A
:2007A000002CFCD0BFF35F8F9A4222D807210126894602E00132934218D34D4637001540B9
:2007C000AF40D4080119045D2742F3D110003C430C70BFF35F8F00220D4B1A608CF31088F0
:2007E00000280EDBC0BCB946B046F8BD01204042EFE7BFF35F8F00232B608CF310880120C3
:2008000040424346002BEDD00898FFF769FFC0462C0100D030B5EFF3108C72B60A4C236878
:20082000002BFCD0BFF35F8F072301220B409A40CD08435D93434355BFF35F8F0023236086
:200840008CF3108830BDC0462C0100D0044A1078431CDBB2172B00D9102313707047C04641
:200860002CE0002010B5064B064C82B00100009318221F232000FFF789FF02B010BDC0467F
:200880009CC0002050EF00200021044B044ABFF35F8F02C39342FAD17047C046000100D02C
:2008A000800100D0094A83009A1810B514684022544080322240064CC000A44663441A60F7
:2008C000044B9C466044416010BDC04604C0014004D0014000400140074B8000C3181B6804
:2008E000C90092000A435A400C231340034A9446604403607047C04604C0014004D001402F
:200900008000002905D0064B9C460223604403607047044B9C46022360440360F8E7C04601
:2009200004E0014004F00140D0231B061B6830B50500584243412F205B4283430E48EC08C2
:200940008446072028408000814020000B4D3C3063448000A40041511B19002A05D08022E7
:20096000920194466344196030BDC0229201944663441960F8E7C046304101400040014076
:200980000123D0228340120693629361094A83009A1811684022514080320A400649C0007E
:2009A0008C4663441A60054B9C460523604443607047C04604C0014004D00140004001404B
:2009C000054B064A1360064A136053609360D36013615361936170478080808000E400E0D1
:2009E00004E400E01F2318401E3B8340002905D0C021044A4900535013607047802201494A
:200A00008B50FAE700E100E070B50D00EFF3108672B60F4A1368002BFCD0BFF35F8F0D4BC4
:200A200010309B6884001B590B4A934203D09D4201D000F0BDFF074B9B681D51BFF35F8FBF
:200A4000BFF35F8F0022024B1A6086F3108870BD240100D000ED00E0C1010010F0B5DE4672
:200A600057464E464546E0B50C0083B0EFF3108872B6634A1368002BFCD0BFF35F8F614BD9
:200A800061499A68030010339F00D55901938D4243D0A54254D05D4EAA1B2F2A3DD85C4B91
:200AA0009B461B68994601231A009C4682404B4613401F2299466346024093409A468022CD
:200AC0005B4650469850BFF35F8FEFF305839B46002B37D0019B5B4501D000F069FF012351
:200AE0002A009A439068844208D176E04B005B189B00F3189868844236D01A0006215156EA
:200B00000029F3DA844254D04B46002B27D0C02251463F4B5200995019603A4B9B68DD51D5
:200B2000BFF35F8FBFF35F8F0022354B1A6088F3108803B0F0BCBB46B246A946A046F0BD6C
:200B40000D00EAE72A0063469A4390688442D5D106201056130000280ADA0D0031E0802337
:200B600051462B4AD150D8E706201856002821DB42001118890074188B46A1689960E17924
:200B8000D971062161569971002924DBA488F11A640524155C44091909051E4C490D21432E
:200BA000998013181C4A9B001178F31899711070AAE713005946002914D1FF3191711749EF
:200BC000918015490A789A71154A9B1B5B415A43120D0A7098E71149E2E7062010561300F1
:200BE0000028C5DA0F4A1049D21A083A5002400D014399800D4952080A43DA8084E7C0468A
:200C0000240100D000ED00E0C101001030E0002000E100E000E0FFFF7B35012001BDFFFFE4
:200C2000AAAA00006AE0002000F0FFFF00F8FFFF70B501240443EFF30581EFF3108C72B673
:200C4000214A1368002BFCD0BFF35F8F1F4B05001F4AED1A6D416A43120D1E4D8900AE68B4
:200C600052B27658A6421CD00621595691421CD012215956914222D01E215956914220D0E1
:200C80002A2159560324914210D0134B19781A708171BFF35F8F00220B4B1A608CF310886C
:200CA00070BDAB680D4C5C50EFE700246100091989005B18FF21997109499980E5E70124F0
:200CC000F4E70224F2E7C046240100D030E00020AAAA000000ED00E07B350120C10100104B
:200CE00001BDFFFF024B9C4661448900016070474000003470B5114C114DAC420FD2FF267B
:200D00002368002B0CD0FFF7A1FD01002000FFF7E9FFA680BFF35F8F0834AC42F0D370BDCE
:200D2000FFF794FD01002000FFF7DCFF2671BFF35F8F0834AC42E3D3F1E7C04698E80020A5
:200D4000A0E8002010B504000120FFF78BFD034BC3189B002360BFF35F8F10BD400000345B
:200D60000A4B1968EFF3108072B60A68002AFCD0BFF35F8F1B68BFF35F8F00221A6080F3C9
:200D8000108840BF002000217047C046FC340120F0B5DE4657464E464546E0B587B0EFF33A
:200DA0000583032201251A40954091008846A946B34B03925C58B34B1D60B34B04934B46FB
:200DC000B24843630823E55E002D37DAA3881BB2002B00DBADE0A379002B00D0EEE008232C
:200DE000E05E002820DB430062691B18DB00D3189E68DD68731C00D111E1A448010041447C
:200E0000826A0B69B71A9B1A9F4215D30123026A039883401A420FD09C4800F0DDFB8D427F
:200E200002DCCCD18642CAD940BF07B0F0BCBB46B246A946A046F0BD0E61EDE762696B0076
:200E400092465B19DB009A4453469E68DF6800F0C3FB8F42BADC00D103E1002F00DAE8E00C
:200E60005246534652691B699346049A934200D1D9E052460821605E5288000459461043DD
:200E80009847009001910099019A0B001000134300D1CEE013000A00B61A9F41002806DB57
:200EA0007A4800F099FB009E019F36184F4153469E60DF6000229A5E002A00DA86E753001C
:200EC00099186069C900411802938B68C9689B46B94200DD7AE702D1B34200D976E708237A
:200EE0009C46A444059565462281A446029B2C0006E053009918C90041188D68C968AB466A
:200F00009B18DB00C318B94206DC00D1B3E01C000023E25E002AECDA230064469C46534670
:200F20001A806346059D1D80A3881BB2002B00DA51E72269EFF3108172B61368002BFCD062
:200F4000BFF35F8F0123A7885B42A3803FB22369BFF35F8F00221A6081F31088002F00DA10
:200F600039E72300083322009A4666697B00DB19DB00F318996850468C460824115FDD6883
:200F8000002910DB029306E0AB4244D00023E15E2000002906DB4C006418E4003419E368F1
:200FA000AB42F1DD029B078000201F5E1980002FDCDA1400A379002B00D110E70023A371DD
:200FC00026000823E15E08364B1C00D12CE70800A246656902E03E004B1C1AD04B005B180B
:200FE000DB00EF180A008C46E95E7B881BB2002BF1DA01235B42DC17BB60FC60824205D062
:20100000534631801B893B8053461A8160464B1CE4D15446E5E6A3686345B7D9C2E76B1C59
:2010200000D0EAE6F8E65B4658461B69984700281BD153461B8822692381EFF3108372B674
:2010400011680029FCD0BFF35F8F514662880A8022696580BFF35F8F0021116083F31088C7
:20106000B4E6864200D8F8E6B0E65B461A685B680092019307E7B34500D848E74CE7C04690
:20108000DC3401203C7005408D0B00200040054070B52E4C2569002D04D00A212C48FFF72E
:2010A00021FE70BD2B4E0321300000F08BFAE660FFF7CCFB284B03229C46D02322701B067F
:2010C0001B6801216370254B6044A3600F23800020610220638063694942A1801980023105
:2010E000198647311D83585218315A5275325C39995218320131995218320131995218325B
:2011000001319952083518329D52023118329952183201319952183201319952183201318A
:2011200099521832013199521832013199520C4B0C49DC6001303562FFF766FC01210320A9
:20114000FFF750FC084B1D60A7E7C04678E00020FC3401200040054040000034FFFF100019
:20116000DC3401208D0B0020386005400048704778E0002070B501000469EFF3108C72B6F9
:2011800020680028FCD0BFF35F8F02200D5E4C6968004019C00024180869002D36DB2688D7
:2011A0004E80BFF35F8F002606608CF31088E36063880498013320615B0405985B0CA2603A
:2011C00060611A1C002B1FD093B22804628018430A69EFF3108C72B61368002BFCD0BFF313
:2011E0005F8F8B8823808D800B69BFF35F8F00221A608CF310880B7801329A40CB68084963
:201200008C4663441A6070BD0122DDE7BFF35F8F002303608CF3108801204042F3E7C04607
:201220003C20000010B543890A1493421ADD53009B184269DB00D3180469EFF3108C72B64D
:201240002268002AFCD0BFF35F8F5A88090494B2090C8A4208D00369BFF35F8F00221A60D8
:201260008CF31088002010BD8022120214435C80012302698371BFF35F8F002111608CF34D
:201280001088044902788C469340C268012062441360E8E73C200000F0B5C64600B582B023
:2012A000040000F0A1F9FA2206000F00200000230021920001F002FB8019794104000D1E09
:2012C00002DA01242E4D644206267642F71736196F41AF4214D811D000F086F932003B0061
:2012E000121A8B41002B15DC002B46D02000290000F0B8F902B080BCB846F0BDA642EBD96A
:201300000026002700F070F932003B00121A8B41002BE9DD00F068F932003B00121A8B411B
:20132000002B0ADB00230193164B3200009316483B00FFF71FFF0130D8D000233900B046E8
:201340009C46124A1248536A994204D8966A4645CCD29942CAD10668EFF3108772B6336838
:20136000002BFCD0BFF35F8F0368BFF35F8F66461E6087F3108820BFE5E7002AB6D0C9E784
:20138000FFFFFF7F5D0B002078E0002000400540FC340120F0B557464E46DE464546E0B5E1
:2013A00006000F0085B0EFF3058399468B46002B12D0384900204B6ABB4206D38A6ADB1BA6
:2013C000591E8B41B2424041184305B0F0BCBB46B246A946A046F0BD2F4B9A46DB689846A3
:2013E00053461B784046039300F0F6F84246039B040004339B009B580D001B1A390030002D
:20140000001BA941894510DC0DD020BF214A0020536A5B45D9D3926ADB1B591E8B41B24294
:2014200040411843D1E78342EFD900F0DDF832003B00121A8B41002B1ADB00230193174B28
:201440003200009350463B00FFF794FE011E0FDD104B5A6A5A451BD39B6AB34216D350463E
:20146000FFF7E0FE0B4A0020536A5B45ADD3D2E7084A0020536A5B45A7D30020926ADB1B32
:20148000B24240415A1E934118439EE75A45E6D120BFE4E70040054078E000205D0B002026
:2014A000F0B5CE464746110080B583B004009C460C9D194300D16CE06146DB1701930093A5
:2014C00053401E00019B4B401F0000980199361A8F4163460A996B600B9BAC6029612A60E6
:2014E0006B6100F081F880197941002902DA0120314940422269EFF3108972B61368002B6E
:20150000FCD0BFF35F8F0223E65E636972009219D2009B1822699046002E42DB1A88628058
:20152000BFF35F8F002247463A6089F31088234A9860D9601A615A885D6101325204520C0E
:20154000111C002A2BD088B23204024359802069EFF3108772B601680029FCD0BFF35F8F83
:20156000A1881980A6802369BFF35F8F0021196087F31088124823788446013199400120C0
:20158000E36863441960EA6003B0C0BCB946B046F0BD00230126002701229C4699E70121AD
:2015A000D1E7BFF35F8F0023136089F31088012200205242E7E7C046FFFFFF7F8D0B00204A
:2015C0003C20000010B5024A0248FFF7BDF810BDB8C0002054EF00200300416A0A00986A27
:2015E000596A8A42FAD17047034B596A0A00986A596A9142FAD170470040054070B50400F7
:201600000D00174A536A1900966A536A8B42FAD13000190024184D41AB4216D813D0104B05
:201620002A005B6A9D4203D90D494B6A9342FCD3934207D10A4A02E0516A994202D1916A0A
:20164000A142F9D370BDA642E9D9054B5B6A1C005A1CEFD0012201246442E5175242E3E756
:2016600000400540064A536A9942FCD807D1044B02E05A6A914202D19A6A9042F9D8704758
:2016800000400540F8B5040021481E0017000D0000F0F0FA0100380000F0ECFA069B3604A5
:2016A0001B031E432368002B20DB1A4B1A49E3185A1E93418022920194465B421B0B174AB8
:2016C0001B0363441360164A13601F000A689743FBD1144B2560E2182123A06013602368A8
:2016E000002BFCDA0823E6601360F8BD3F2322681340AB42D9D1A3681B051B0D8342D4D1BD
:20170000EE22E368D2021340B342CED1EDE7C046001BB7000040FDBF08C0004000E00040E3
:2017200000F0004004300000044B00011B68044A5840F023034013607047C0460040064080
:2017400000500640024B18680006000F7047C04600400640024B1A68024B5A607047C0463B
:20176000BC34012000800540194B1A4A10B5DA618022194BD2051A60184C194A1460002910
:201780000AD0E022174BD2041A60002809D18022144B12061A6010BDE022D2041A600028DF
:2017A000F5D043011B1A9B001818802300015B04984209D203000C4A13608022044BD205D4
:2017C0005860084B1A60E6E7084B1800F3E7C046008005402131B76A00B00540FCFF010043
:2017E0000820014000A00540BC340120FFFFFF008023024A9B000B43D36270470080054004
:20180000002310B50100988A1B8B984710BDC046162310B50100188802331B88984710BD42
:20182000F8B54746CE4680B50F1E18D014239946043304000025012698464B4618884346DB
:2018400021681B88984701C4431E984101350640AF42F2D13000C0BCB946B046F8BD0126D1
:20186000F8E7C046AA23064A1B0113608D235B00D3600449044B19605368002BFCDA704711
:201880000040024000B0FA0000600240F8B5040006200D00FEF71EFF002844D0374B384945
:2018A000E3185A1E93418022120494465B429B0D344A9B0563441360334A136018000A6858
:2018C0009043FBD12D4B314AE31859424B4180215B00490006209952FEF7FCFE2900C00026
:2018E00000F0C8F90130C3091ED1402701226262A362266BF30722D4E36A254B0620E51897
:2019000000232B602663FEF7E5FE3900800000F0B1F97023E26A5A400E3313402B601D4B65
:2019200023630323A364F8BD1B4A93421ED900231A4A1B4F6262A362266BF307DCD5194BB4
:20194000144AE3181A60656AA36A0620AD01ED18FEF7C0FE144900F08DF9AD0201002800A1
:2019600000F088F90021FFF749FEC5E74006800E9F011A003F180300B9E7C0460080FCBF23
:2019800008C0004000E0004000F00040343501202C10000001030000FEFF0000FFFF00002A
:2019A000C0FF3F00303000004E0E00007047C04610B50148FEF794FEDCC0002070B5074DE6
:2019C000074EB54209D20024013E761BB60808CD984723000134B342F9D170BDA0E800208E
:2019E000DCE80020054B064A06491A60064A074B1A6010000B689843FBD1704700E000407D
:201A0000BFCDFBFE08C00040FE7F3C0000F00040044BDB6C002B03D18022034BD2021A607D
:201A20007047C046000011504C201150044A054B1A60054A1368DB018033FBD17047C046C1
:201A4000FFFFFF0100F0004008C000404022034B9A675A671A67DA667047C04600F001402F
:201A600010B5FEF711FF10BDF8B52749274C284D641AA6103200302E00D930222800920021
:201A800000F0A2FFBC2C3BD830202F232C196407204A801BE40F9B1B052B16D93700002C38
:201AA00002D0B300771CEA50001B33199B004108EB18C900C9181A605A6008339942FAD1C7
:201AC000012303421CD09843C619B300EA50731C2F2E15D09B00EA50B31C2E2E10D09B00BE
:201AE000EA50F31C2D2E0BD09B00EA50331D2C2E06D09B00EA50731D2B2E01D09B00EA50AE
:201B0000054B9D60F8BDC04600010010C001001000000020C101001000ED00E0002310B534
:201B20002E4C82B0A367FFF79DFE01222C4B1A60636C012BFCD103222A4B1A60274A936BFF
:201B4000012BFCD10121284A284800930533FFF799FD05230121244A25480093FFF792FDF4
:201B6000002202210420234BFEF740FDFFF7EAFD0B282CD90022012105201F4BFEF736FD4C
:201B80000022002107201D4BFEF730FD0022002108201A4BFEF72AFD8023DB000093002232
:201BA00000210920154BFEF7A7FC0022124B00210620FEF71BFD0420FEF78CFD104900F025
:201BC00059F801000020FFF713FE02B010BD0C20FFF7AAFD0B4B033BFDD2CBE7008000406F
:201BE0003CB0004030B00040008C86470080024000C00240001BB70000C2EB0B006CDC02A8
:201C000040420F00E02E000001480421014B184790E000201D160020014B9B68184700007B
:201C200090E00020124A936F9B0815D29066D166002905D0FFE7FFE7FFE7516F106F704759
:201C400004B580210906C2175140002800D0C84308F0BEFF002104BDF0B5146E556E576F67
:201C6000166FFFF7E3FF1466556657671667F0BD000000D0114A936F9B0813D21066516608
:201C8000002905D0FFE7FFE7FFE7516F106F704704B5002801D00020C04308F099FF002118
:201CA00004BDC046F0B5146E556E576F166FFFF7E5FF1466556657671667F0BD000000D061
:201CC00094464A4A926F9208624601D228E0C046F0B5464E346E756E776F366F00F020F821
:201CE0009446424A14665566576716676246F0BD94463E4A926F9208624601D254E0C04607
:201D0000F0B53A4E346E756E776F366F00F04CF89446364A14665566576716676246F0BD33
:201D2000002B24DB11D000293EDA00B5C943404200D1013100F038F8C943404200D1013160
:201D4000DB43524200D1013300BD002AEBD1002801D1002905D00020C90FC90701D1C04394
:201D6000410800B508F034FF0022002300BD00B500290ADBDB43524200D1013300F014F8C2
:201D8000C943404200D1013100BDC943404200D10131DB43524200D1013300F005F8DB43A2
:201DA000524200D1013300BD002923D1002B18D1002A0CD0BC460D4F38667A660021002376
:201DC000FFE7FFE7FFE77A6F386F67467047002801D00748010000B508F0FAFE002200232A
:201DE00000BD02000B00002000217047000000D0FFFFFFFF002B00D0BFE0130C28D1002A79
:201E0000E7D080B4114F39667A66FFE7FFE730B4040C7B6F396F1B0423433B667A66FFE7BA
:201E2000FFE7FFE7C04684B27B6F3D6F1B0423433B667A66FFE7FFE7C04600232C042D0CA0
:201E40007A6F386F00196941B0BC7047000000D0F0B594460025140E01D112020835140F30
:201E600001D112010435940F01D192000235D40F01D152000135D40B0134254F7C66254CEE
:201E80003C660E0C93B2FFE7FFE7FFE73C6F6643360C7703BE467343DF0B5B04C01AB941A8
:201EA000130C7343DB18C91ACE086643360CB64493B273431F0F1B01C01AB941130C7343CE
:201EC0001F0B1B05C01AB941860D8F023E436643360C092D24DB520A7243801A7703460AAA
:201EE0006643360C16235B1BDE40DF40BF1964466643821B7046043506330100D940A84019
:201F0000C01900D30131A24206D20023F0BD0000000000D0FFFFFFFF121B0130F3D3F1E78F
:201F200009277F1BFE406446A2B27243801A00D20139220C7243130C1204821A99410B00A7
:201F40007046043513370100F940A840801900D30131002B02D1A2420AD2F0BD013000D319
:201F60000131121BFAD2013BF8D1A24200D2F0BD013000D30131121BF7E7F0B51C0C00D0F0
:201F800080E00CB400251C0A04D11B02160E3343120208351C0B04D11B01160F3343120133
:201FA00004359C0B04D19B00960F334392000235DC0B02D192185B4101351C009718644147
:201FC0000134464F7C66464C3C660E0CFFE7FFE7FFE7C0463C6F6643360C7703BE4697B2F2
:201FE0007743C01B00D20139C01B00D201399FB27743C91BC91B170C77437E04FF0B801B82
:20200000B941CE086643360C0C2D33DBB644120B1F053A431B0B97B27743C01B00D20139F6
:202020009FB27743C91B170C77433E043F0C801BB941860D8F023E43664329277F1BFE403C
:202040000C3D7746AF40BF1930BCA2B2ABB272437343801A9941220C7243130C1204801A85
:20206000994102000B000137001BA941F9D2781E0021F0BD0C277F1BFE4077467F0BAF40CC
:20208000FF19E0E700245D1C07D0144F7D663966FFE7FFE7FFE7FFE73C6F95B29EB2654386
:2020A0006643401BB141150C1E0C6543664336042F0C3E432D04401BB141994204D2020067
:2020C0000B0020000021F0BD01D19042F7D3801A994101349942F2D3F6E70000000000D0A3
:2020E000FFFFFFFF48404140484018B41B4B5B68FC46019308BD04DF8B21002018B4174BE6
:202100001B68FC46019308BD00DF952100209446134A926F920809D2624618B40F4BDB682E
:20212000FC46019308BD0CDF4D2400200C4AF0B5146E556E576F166F6246FFF7EEFF084A20
:202140001466556657671667F0BD18B4034B9B68FC46019308BD08DFF122002080EA002006
:20216000000000D0FFB550404240504059404B40594000E0FFB5154F4C00640D03D0BC42F6
:2021800004D10C0314D80020090D09055C00640D03D0BC4204D11C030AD800221B0D1B054D
:2021A00001264B4009D44B4003D58B4200D18242FFBD9942FCD19042FFBD0B43DB18034352
:2021C0001343F5D0C9434918FFBD0000FF07000000B5FFF7CFFF804100BDC04600B5FFF70D
:2021E000C9FF01D9002000BD012000BD00B5FFF7B9FF01D9002000BD012000BD00B5FFF7DF
:20220000B1FF804100BD012040054A00121804D85A00121801D800207047012070470000CE
:202220000021002805D17047C1174840401AFAD0C90713B5064B1B6898470CBC441CA240EF
:202240001005120B0349091B09051943114310BDF83401201F04000010B54C00620D8023BE
:20226000D218DB00D21A5B057E2A10DD9E3A13DACC170903490819435242D1406400013419
:202280001532202A05DAD0400843604310BD002010BD0846604310BDC80FC018013810BDA3
:2022A00018B4044B5B6AFC46019308BD24DFFD250020000080EA0020132370B51D78012DB6
:2022C00019D014DD1F48FFF7A3FA06001E48FFF79FFA1E4C80223100200000F075FB022D43
:2022E0002DD01B48FFF78CFA1A4B186070BD1A4B164CA364F5E7184B144C23606360A36042
:20230000E36023616361A361E36123626362A362E36223636363A363E36323646364A36469
:20232000E36423656365A365E36523666366A366E36623676367A367E367A364D1E7064B5A
:20234000A364CEE7534400005346000080EA00204C330000F83401205921002007B560463F
:2023600001880A0A0230DF2AFAD1C9B2820804D3028840880004104300E00068014A505002
:20238000039007BD80EA00200FB403BC0CBCF0B50124E407634000E0F0B50C0DCF0F661EBA
:2023A0003605891B640503D3C943404200D30131640D03D0661CF60A07D0E41B00207F0031
:2023C000791C89078912803C24031D0DDF0F6E1E36059B1B6D0503D3DB43524200D30133C4
:2023E0006D0D03D06E1CF60A07D0ED1B00227F007B1C9B079B12803D2D032F1B661B58D4BC
:20240000A446202E46DA20371400BC401D00BD40F24033412A4380185941CB0F05D0C943E3
:20242000C043002264425041514162464D0D28D10D0D07D100281FD0241940414941013A27
:202440000D0DF9D0640006D3013000D30131002C01D140084000013A0BD4941CE40A04D113
:2024600012051144DB071944F0BDD907204B194300E0D9070020F0BD0029DDD1002CDBD121
:20248000F0BD0132C6074008CD0728434908002EE1D0D9E73C2E29DA203E40371400BC40C6
:2024A00000D00124F24014431A00BB401C43D317ACE7AC46202F08DA20360400B4400D002F
:2024C000B540F84039412843A5E73C2F0CDA203F40360400B44000D00124F84004430800C4
:2024E000B1400C43C117EAE710001900002494E70000F07FF0B50C0D661E3605891BE60AAB
:202500006405640D02D0651CED0A04D0002001210905803C2403A4461C0D671E3F05DB1BBE
:20252000E70A6405640D02D0651CED0A04D0002201231B05803C24037740644497B484B289
:2025400096B27443070C7E43150C6F4380B26843361802D3012000043F183004350C0019CB
:202560007D41844688B29AB250430C0C62431F0C7C438EB27E43921902D301263604A41974
:202580001604170C3618674101BC81B29AB25143040C62431B0C5C4380B25843121802D3F1
:2025A0000120000424181004130C401863412D185E410020474106BC88B293B258430C0C0B
:2025C0006343120C544389B251435B1802D301210904641819041A0C091862416D185641BB
:2025E0000020474118BCF902720D1143F0026A0D1043ED020A0D03D16D1940414941013B2E
:20260000124E9B1B7600B3420ED26D0007D30130002671416646354301D1400840001B056B
:20262000C918E4072144F0BD0BDA013306D1013004D101314F0D01D04908F2E7E107002035
:20264000F0BD013631050020EBE70000FF030000F0B51C0D671E3F05DB1BE70A6405640D14
:2026600002D0661CF60A04D0002201231B05803C2403D0252D060026F6432E661E096E66D3
:20268000CE0FF619B44649004F0D02D07E1CF60A03D000200021403F3F033E1BB600B44467
:2026A000013F7F05C91B49082E6F013676089C02950D25437543ED137543AD1301356D1044
:2026C000F603761B0CB4CC02450D2C43A2B2B3B25A43270C7B43350C6F43A4B26C431B19AE
:2026E00002D3012424043F191C041D0CA4187D4124196D41009A91B2ACB26143170C7C43F1
:202700002B0C5F4392B25A43A41802D301221204BF182204230C52187B41019C6C431B1963
:20272000520ED9010A434401A01A81B2B2B2514303145A43360C734387B27743D617D21971
:2027400000277E4136049B191704160C7F185E417316ED18F301002680337541A90F06D192
:202760006400690AE8055B0A184309D22FE00422944480337541A90AA8059B0A184326D32B
:20278000404149412404009A019B0D005543641B4343E41A95B286B27543170C7E43030CFE
:2027A0005F4392B25A43B61802D301221204BF183204330C52197B4152429C41002C02D4D4
:2027C0000022013051414008CA071043490802B06246D7079210084BD218084B9A4203D23C
:2027E00012058918C919F0BD0020002A01DC3900F0BD01331905F5E7FD030000FE07000052
:20280000002200B5203200F004F8080000BD000000220B150AD410B5944600F031F81414DE
:20282000013400DA0021CB17144C20470020002170476244343A0CD40C2A07DA04009140E7
:20284000904052422032D440214310BDD843D94310BD203207D40C469440524220321141EE
:20286000D040204310BD0800C917203203D452422032104110BD1800190010BD2F26002090
:202880000A0DCC0F531E1B05C91A520503D3C943404200D30131520D03D0531CDB0A07D0B5
:2028A000121B00206400611C89078912803A1203014BD21A70470000FF03000051434343E5
:2028C000C9188C46110C83B24B4310B4040C614392B280B2504362431C041B0C001910BC13
:2028E00059411304120CC0185141614470470000132310B512481C78FEF78AFF0100012CAE
:202900000AD003DD80220F4800F05EF80E48FEF777FF0E4B186010BD0A4C5422200000F083
:2029200053F80B4B6365A365E36523666366A366E36623676367A367E3672362E361E5E7FD
:202940005346000080EB00204C330000F83401205127002007B5604601880A0A0230DF2AB5
:20296000FAD1C9B2820804D3028840880004104300E00068014A5050039007BD80EB0020F2
:2029800010B5040008F032F9002804D0034B04199C4200D810BD0248FDF7A2FE000004205F
:2029A000E8C0002010B508F02BF910BD01480421014B1847A0E000201D160020014B1B68C6
:2029C00018470000A0E00020014B5B6818470000A0E000209A4200D2885470477047C046EC
:2029E000F8B55746DE464E464546E0B599460A9B07009A460D9B884693460B9C9B073BD1A6
:202A00000C9B9C423DD21E1B0B9415000C005E442A004B46013521002020B847B542F7D177
:202A2000A0460B9C002C20D0454636195346321B013C185D29004B46B847002CF6D12B00A4
:202A4000350098460D9B9B070FD55B46EC1A0C9BA3420AD9464698462A004B463100202089
:202A60000134B84701354445F6D32800F0BCBB46B246A946A046F8BD16001500002CD3D148
:202A8000E0E716001500002CCED1EEE7F0B54546DE4657464E46E0B585B09C4610AB1B7825
:202AA000149F934698460F9C129E139DBB074CD4002D42D1B44248D201233B4099460E9B48
:202AC000013B9A46302304E0524601341355A64201D9202CF8D14B46002B00D183E00E9BFE
:202AE000013B99463023A54205D82EE04A4601341355AC4229D0202CF8D1FB060CD57B050B
:202B000054D4A64263D0A54261D0119B102B50D0022B57D0202C32D1202301930E9B5A4690
:202B20000093039763460295FFF75AFF05B0F0BCBB46B246A946A046F0BD01233B4099467F
:202B400001233B422AD1B442B9D3FB061CD57B05DBD4002CD5D1119B102B5BD0119B022B79
:202B60006BD0302301240E9A13704346002B10D17B073ED52B260E9A631C1655CDE7230093
:202B8000013430260E9AD654202CC5D04346002BEED02D260E9A631C1655BEE74346002B47
:202BA0002FD0013DB44200D289E798E7119B102BB2D1BB0637D5202CAED058230E9A135595
:202BC0000134A7E7202CA7D02300013407E0631E012CC0D0119A102A31D0022AD1D16226B6
:202BE0000E9AD65496E7FB06CED57B0500D488E78BE723003E0790D520260E9A0133165553
:202C00008BE70C233B405A1E9341ED1AB44200D255E764E7BB060ED478230E9A0224137067
:202C200030235370A1E7202C00D175E778230E9A135501346EE75823EFE76033EDE70E9AE8
:202C4000A61E91464E44BA0602D55822327098E77822327095E7C04610B5002800D110BDCC
:202C600001F0B0FCFBE7C0460B0010B5002802D049681B68984710BDF0B55746DE464E462B
:202C80004546E0B595B083460F00924698461E9A1F9B10001900209EFFF7B5FA002800D04B
:202CA000EAE11E981F990122C54B5242FFF790FA002800D014E11E981F990122C14B524276
:202CC000FFF79CFA002800D0E9E01E981F990022BD4BFFF793FA002800D0C8E01E981F997E
:202CE0000022BA4BFFF774FA002800D0BFE01E981F9900220023FFF76BFA002800D0E4E0E8
:202D000000230B93229B5B0500D406260024302307E0172106AA013452181355013E202CFD
:202D200001D0092EF5D81E981F99FFF795FAA84BF2009B181A685B68050008920993FFF7BD
:202D400073FA02000B001E981F99FFF7CEF9089A099BFFF7FAF906900791FFF7A1FA814619
:202D6000FFF75EFA02000B0006980799FFF7BDF90022984B06900791FFF740FA002800D1B2
:202D80000DE101239C46E1444846FFF749FA02000B0008980999FFF721FA002802D00023D6
:202DA00099460135002E00D1D9E006954D46B94614E006AA944617230A2163442800013432
:202DC0001F19FEF757FF3031397028000A21013EFEF750FF092D00D817E10500202CE8D180
:202DE0004F46069D20240CAE06AA17239446634499465B46B34606930FE04B4628000A214D
:202E00000134E618FEF70EFF3031280031700A21FEF708FF051E00D1E4E0202CEDD1069BC9
:202E20005E469B460323229A1340012B18D1219B002B15D00B9B002B00D1FDE0219B013B80
:202E40002193202B0CD93023219A07E0172006A9013409180B55944200D3CCE0202CF5D196
:202E6000229B01940393219B0096029322E0229B52460493219B3900039358461E9B1F9CF8
:202E8000029600930194434600F04AF90400200015B0F0BCBB46B246A946A046F0BD229BE9
:202EA0005B070FD403224C4B2299019203912199009302914346524639005846FFF790FDD4
:202EC0000400E4E70422454BEEE71E9A1F9B00200021FFF70AF901231E901F910B9311E7D4
:202EE000229B54469B0711D1219B042B0ED9219B55469C465E46043C64442A004346013577
:202F000039002020B047A542F7D1B346344D26002B1F99465B46A3461C003200E878434608
:202F20003900013DA04701364D45F6D123005C469B46229B04349B07A9D55346219AE31A97
:202F40009A42A4D95E4615002200434639002020B04753460134E31A9D42F5D897E7280027
:202F6000FFF762F902000B001E981F99FFF7BDF80022184B06900791FFF72AF90CAE00282C
:202F800000D031E7069807990022124BFFF736F9002800D028E7012301359D4324E70022F9
:202FA000069807990B4BFFF713F9002800D0F9E64B46002B5CD101239C46E144F2E6C046B2
:202FC000FFFFEFFFFFFFEF7F65CDCD4165CDCDC130D900200000E03F3CC1002034C100201F
:202FE00044C10020069B5E469B460323229A1340012B00D181E0202C00D131E70B9B002BED
:2030000027D02D23335501342AE74F46069D202C00D1E7E63022331907E0172006A90134D9
:2030200009180A55202C00D1DCE6A342F5D12E220CAE0134F254D7E60C23229A134257D0DD
:20304000219B013B2193A34200D9FCE6202C00D106E7229B5B0703D52B2333550134FFE633
:20306000229B1B0700D4FBE6202333550134F7E6DB0700D496E69EE7229B55469B0711D14C
:20308000219B032B0ED9219B54469C465E46033D654422004346013439002020B047AC425C
:2030A000F7D1B346B9465F461C4EEC1C2A00B078434649460135B847013EAC42F6D1229BE9
:2030C000BB464F469B0700D4E1E65346219AE31A9A4200D8DBE65E461500220043463900BA
:2030E0002020B04753460134E31AAB42F5D3CEE6219BA34200D9A6E6B2E6219B002B00D10F
:2031000079E70B9B002B97D0219B013B21939C4200D298E6202C00D073E7A1E640C100201F
:20312000F0B5DE4657464E464546E0B599B081468B4692469846229A239B10001900FFF745
:2031400062F8002800D0CAE0229823990122824B5242FFF753F8002800D0C0E0229823992A
:2031600001227E4B5242FFF733F8002800D0B6E02298239900220023FFF72AF8002800D055
:20318000C9E1229B239C08930994089809998023269ADB001A400D928022269C120114408D
:2031A00022000B94269C07000E001C4200D0ADE00B00034300D0D5E0002A00D00AE22200DE
:2031C00006332493022313400C930223134200D002E2259B042B00D20FE2043B0B93002308
:2031E00004250A930022229823990023FEF7F0FF002800D003E25A4B269A134004930B9B98
:203200000393249B0293089B099C009301945946434652464846FFF72FFD02002020269BE1
:203220001F27034059424B415B421840531C0893594643464530C8470A9AD317D4185C401D
:20324000D30F0A936B1E0B9308AB9C460025674401E0202D0FD020000A21FEF70BFD0135D8
:203260007E193031317020000A21FEF703FD26000400092EEDD8052306930B9B59460593B1
:20328000002304930A3303930A9B4846029310AB0093089A43460195FFF7F8FB0C9B002B0F
:2032A0002DD05346C41A259BA34228D94D465F4681461E00534639001A19202043460134D4
:2032C000A847A642F6D8534648462599C21A01320023914200D386E1013018180FE0269B14
:2032E0000493259B0393249B0293229B239C009301944346524659464846FFF7BDFC19B023
:20330000F0BCBB46B246A946A046F0BD01432BD10B9B2200002B00D154E700230A93249BC8
:203320000A9A0024934200DD85E12298239900220023FEF74DFF002800D035E1269B084A90
:2033400002941A408023DB0013430493259B0393089B099CCBE7C046FFFFEF7FFFFFEFFF64
:20336000FFF7FFFF06232493B44B70009C46400D6044FEF759FFB24AB24BFEF7E6FEB24A1C
:20338000B24BFEF7BBFE3603B14B360B334304000D00380019000022AE4BFEF7A6FEAE4A88
:2033A000AE4BFEF7D2FE02000B0020002900FEF7A5FEFEF751FF0A90FEF736FFA84AA94B72
:2033C00004000D00FEF7C1FE0022A74BFEF796FEFEF742FFA54A0600A54B20002900FEF732
:2033E000B4FE040030000D000C96FEF71DFFA14AA14BFEF7AAFE02000B0020002900FEF768
:2034000074FE02000B0006000F00FEF79EFE320004000D003B0030003900FEF76FFE00221C
:203420000E900F91954B20002900FEF770FE0022934BFEF763FE02000B0020002900FEF721
:2034400066FE00228F4BFEF759FE02000B0020002900FEF75CFE0D008021040032003B00FC
:203460000020C905FEF741FE02000B0020002900FEF744FE02000B000E980F99FEF747FE08
:203480000022734BFEF73AFE7F4B0C9C9C46644400222305FEF759FE06000F0002000B006B
:2034A00008980999FEF794FE00280AD00A9B3000013B39000A930022714BFEF728FE06005B
:2034C0000F000A9A330063323900C62A12D802222698042510400B9A0C90002A25D1259BE2
:2034E000042B05D9002800D0A1E0259B043B0B93042541E00222269810400B9A0C90002AC2
:2035000012D1259B052B76D9002872D1259B0525053B0B9334E0802212069446229B089356
:20352000239B6344099330E605250B4300D1F6E608980999554A564BFEF758FE002808D082
:20354000089809990022534BFEF742FE002800D0E5E6249B002B1CD00D9B002B19D0249B20
:20356000013B2493259BAB4204D90C9B002B5AD002230C9300230B930A9B002B00D131E695
:203580000898099932003B00FEF7C1FD0890099128E6259BAB42EDD90C9B002B43D000230E
:2035A0000B9302330C93E7E78020269B3A4A00061A40802384460294089C099D2900DB0035
:2035C00013430493259B6144220003930B00009201938EE60524A8E600230B930A930233F2
:2035E00004250C93FEE553468C46013B63441B1A72E602230C930525C2E70423EDE5802015
:20360000089E099F000639008446269A224B6144134004930B9B32000393249B02930B00CA
:2036200000920193F3E5259B5B1B0B93A4E7022304250C93A0E79C1A013C76E601FCFFFF6F
:20364000FB799F501344D33FB3C8608B288AC63F0000F03F0000F83F61436F63A787D23F66
:2036600071A379094F930A400000E03F1655B5BBB16B0240EF39FAFE422EE63F00002C400F
:203680000000244000001840FF0300002D431CEBE2361A3F80842E41FFF7FFFFF0B5DE4654
:2036A00057464E464546E0B5A5B01E002E9B92460C93CD4ACD4B80468B461A60002900D1CC
:2036C000EAE1002330789946002800D1ECE1C84B4C460B93C74B454657460E930AE0631C28
:2036E000984622003B005946A84744463078002800D187E001362528F1D108239A46043BDF
:203700009946023B9846013B00229C460D943078711C0300203BDBB2102B03D80B9C9B0056
:20372000E3589F460300303B89460D9C092B3AD9002398462A2800D1C1E000239A462E281E
:203740004BD00300683BDBB2122B1ED80E999B00CB589F4663460E001A43D8E743460E0034
:203760001A43D4E74B460E001A43D0E710230E001A43CCE753460E001A43C8E780235B007C
:203780001A43FF3B9C467078E1444E4667284FD82428A4D90300253BDBB2422B9FD89649DD
:2037A0009B00CB589F46002394461E0000E00131B3009B195B001E180878303E0300303BE5
:2037C000092BF4D90123624689469C460023B0469A460E00E1442E28B3D1302180204942E9
:2037E0008C46C000024370784B4684446146092900D86CE12A2800D17AE101239C464E469B
:20380000E1449EE7A146A846BA46CA4503D801235B425344994653464A4659460020C04719
:20382000200025B0F0BCBB46B246A946A046F0BD0300693BDBB20D930F2B00D94FE701212D
:2038400099408C466D49894661464B4619400F91634649460B4200D028E10D9B0A2B3AD0C2
:20386000072B00D03BE70C9B190008C98846002B00D14BE121200243914614A98C461F2270
:203880000F2162448C4651460D950C91A24615000F9902E020290CD0130064461C402000C5
:2038A0003730092C00D80738013168541A090F2BF0D80C9B54460D9D9A460F9133E10C9B1C
:2038C00002CB8846002947DB0C9301239C4670784E46E14431E70C9B02CB14935346002BC5
:2038E00000D138E19C4608780B000C908C44002801D100F098FC89466146944603E05A7882
:203900000133002A01D08B42F9D1494662465B1A0C900F93530500D520E10223180010403C
:203920000D90134200D1CBE30D930B1BB1469A465E460C9822003B003100A84753460134E6
:20394000185D0028F6D1B3464E460D9B002B00D0C7E1149B0C93C9E60C9301239C46283829
:2039600049420243884670784E46E144E5E670786C2800D17FE180235B001A43FF3B9C4619
:20398000E14402E780239B001A4301239C467078E144FAE67078682800D173E180231A43EE
:2039A0007F3B9C46E144F0E6672800D103E1472800D15AE1452800D15AE1049207214246F2
:2039C0000C9B0392073352468B43190002920CC92800009201930C9122003B005946FFF7AC
:2039E0009FFB040082E6C04699340020B834012094D70020D8D7002024D80020419000007A
:203A0000462800D1DBE00492072142460C9B0392073352468B43190002920CC9280000924E
:203A200001930C9122003B005946FFF725F904005CE6631C984622003B0059462520A84772
:203A4000444653E60C9B04330D93631C9946920700D422E10C9B2200187859463B00A84735
:203A600043464444012B00D885E23300B8462E005F4625004C469946220043460134390017
:203A80002020B047AC42F7D12C00BB46350047464E460D9B0C9329E6DB4B30789846002391
:203AA0009946002800D012E60024AEE66F2800D188E000D80BE31023782800D1CFE09A43B9
:203AC0000A239C4600230F930A330D9380E05646B1008919490001330E181878303E010044
:203AE00030390929F4D9B2461E000133994628E60C9B023602CB8A46C9435046C9170840E1
:203B000082460C933078731C99461AE610231000984311331843814680201300C0000340EE
:203B2000024200D1A9E64B460693082305935346049310230393002302930F9B22000193E3
:203B40001CAB009359463B002800FEF79FFF434604000C93CAE501235B42C3E60F9B5345EF
:203B600001D953460F930223180010400D90134200D1B7E10D93D1460B1B9A463300A14473
:203B80002E0022004D460C98B9465F469B4608E04B463900541CB0475346185D002877D083
:203BA00022009542F4D15B46BB464F46A94635004C461E00C9E680231B011A43FDE620234B
:203BC0001A4320E708239C4600230F9308330D9380231100DB0019401A4200D116E10D2398
:203BE0009A431000802302009B001A401492184200D0C2E1802302005B001A4091460C9AF4
:203C000004320F92184200D0B7E2430600D59FE1030600D419E30C9B1B880993002B00D0B2
:203C2000FCE110339843002900D1F7E10023994643460593534604930D9B0690039300236D
:203C4000D2E0582808D0622867D102239C4600230F9302330D93BBE720231A43103B9C4688
:203C600000230F9310330D93B2E780231B011A4320231A43A1E6C0239B001A43F31C9946F7
:203C8000B07882E5C0231A43F31C9946B0787CE535005E46BB464F4657E64346012B00D8A5
:203CA00063E1631E43449A463300B9462E005F4655469B46A24622004B460134390020200E
:203CC000B047AC42F7D135005E46BB464F46A14654460C9B4A46187859463B004444A8472F
:203CE000D7E6A1460F9B984500D832E64444E41A3300B8462E005F4625004C469946220067
:203D00004346013439002020B047AC42F7D12C00BB46350047464E461BE680231000DB00AD
:203D200018401A4200D10FE1112118008A430D920D9A802311009B0019408C461A4269D1A1
:203D4000802311005B00194089460C9904310F911A4200D0CAE113005B0600D5F0E01300AF
:203D60001B0600D459E20C9B00229B5ED9175A184A4092B2D90F0C91002B00D1F9E11000B6
:203D800014AA944642461F23149252466344A84616944D460400B946B2461F00159201E00F
:203DA000202D0FD020000A21FDF764FF01357E193031317020000A21FDF75CFF26000400A2
:203DC000092EEDD8149B4F46A94645469846159B56469A46169C0D9B069343460593534672
:203DE00004930A2303930C9B02934B4601931CAB2200009359463B002800FEF747FE0F9BA6
:203E000004000C9372E4C046D92700200C239A431000E7E607220C9B0733934301329446AD
:203E20009C4462460C920CCBD90F0F911100194300D191E0D9171391129151401091139939
:203E40005940119110981199129A139B801A99411090119114AA00239446424699461492FD
:203E600052461F336344A846B24616944E46109C119DB94615921F0001E0202E10D020003F
:203E800029000A220023FDF733FF013630322B00BA550D0022000400002BEED1092AECD89D
:203EA000149B1094119545469846159B4F46B14656469A46169C0D9B06934346059353463B
:203EC00004930A2303930F9B02934B4601931CAB2200009359463B002800FEF7D7FD0400D9
:203EE000FFF704FC0F9B984500D8C1E18023DB000D9343460F9A1B199B1A994633002E0052
:203F00004D46B9465F469B460C9122004B46013439002020B047AC42F7D143460C9901337C
:203F20000F930B7835000C935E46BB464F46002B00D10EE50D9B002B00D1F6E4002319E6BF
:203F40000C9B1B781A0015E710239A430D92EFE60C9B1B78099361E6002399460028AAD1CB
:203F6000002200231092119374E70C9B2200187859463B00A8474C468BE50C9AFA3BFF3B22
:203F800007329A430133994691444B460C931368526815921A4306D1103290430022099211
:203FA000002900D081E06122810600D54122D2B20A9214AA91460A9A00210A3A1492424679
:203FC0001792524618925A460991B3461F311E000F9B4944BA4619941A9500246746984613
:203FE0008946159D16901B920AE03032D2B24B4601341A55A8454AD0202C4AD006000D0068
:204000003A00002330002900FDF772FED2B2092AEBD9149B9C466244D2B2E8E76123820675
:2040200000D54123DBB20A3B0C93434614A91F228C46159353466244A046B2464C46179778
:20404000A9461700099D0D9E1490169308E03033DBB201343B55B5420ED3202C0CD005001A
:2040600031002800FDF706FECBB20929EFD90C9A94466344DBB2ECE7159B4D46A14644463D
:204080009846169B564614989A46179FD0E5B742B2D9179B57469846189B5E469A461B9B60
:2040A00009949B461698199C1A9D43460593534604930D9B0690039300230293099B05E7FB
:2040C0000F9B984500D914E701330F932DE41023110099430D91692800D0BAE08023100032
:2040E000DB0018401A4200D122E61DE60C9B1B68DA0F1100002B00D18CE0DA179818504098
:2041000014AA914642461F23149252464B44A046A946169704006546B2461F000C911592E7
:2041200001E0202D0FD020000A21FDF7A3FD01357E193031317020000A21FDF79BFD2600C7
:204140000400092EEDD8149B444698460C9BAC461900159B56464D469A46169F0D9B0291E7
:20416000069343460593534604930A23039363463CE6002800D02EE602E60C9B1B689946CA
:20418000002B03D110339843002938D16123820600D54123DBB20A3B0C934346169353464F
:2041A00014A91F228C4617932B006244A0464D46B246189799461700149C0D9E159008E0B6
:2041C0003033DBB201343B55B5420ED3202C0CD0050031002800FDF74DFDCBB20929EFD917
:2041E0000C9A94466344DBB2ECE7169B149444469846179B56464D469A461598189F4346C9
:204200000593534604930D9B0690039300230293149BEBE50028A1D172E70C9B1B68D917BE
:204220005A184A40A6E580231000DB0018409C460F901A420FD00220030013400F931042E9
:2042400019D00023A1460F934CE50C9B1B680993E4E40A0034E40223180010400D90134269
:2042600000D03EE54346002B00D042E6FFF771FB01330F937FE463460D93F3E70EB40122FC
:2042800030B584B007AC08CC064D01000094280052420394FFF702FA04B030BC08BC03B03A
:2042A0001847C046D127002010B50C0084B00394012402A902900093034813006242FFF7F8
:2042C000EDF904B010BDC046652A002010B5094A0300146884B0002C08D0012200910648F1
:2042E000524203A9A047012004B010BD00F0B4F90020F9E7B8340120552A002000BEFDE70A
:20430000094A03001068002805D00849C3188B4207D81360704706480449C31810608B421D
:20432000F7D901204042F5E7B4340120000004208435012010B5FFF7E1FFC04670B5FDF76D
:204340003DFB074D074EB54209D20024013E761BB60808CD984723000134B342F9D170BD00
:20436000DCE80020E8E80020030010B5080011001B68984710BDC046F0B5C64600B5437D2D
:2043800007000C001600002B46D0002A17DD0B780A2B24D000239846012E13D00125290087
:2043A000635C01350A2B26D0B542F8D1464509DCA419013C23780D3B5A4253413B7580BCB4
:2043C000B846F0BD4346E018A419F11A013C3B68984723780D3B5A4253413B75EFE7037D11
:2043E000002BD7D102210F483B689847012EDFD001239846D2E7631E5B5C0D2BD4D0884574
:2044000004DA4346C91AE0183B689847022105483B68A8469847C7E70368110020009847CF
:20442000CDE7C04680D90020F0B5C6460B6806000C0000B5802B06D05A1C2260E418267152
:2044400080BCB846F0BD0F4B1D68002D16D00B1D98460D4F02E02D69002D0FD02B68002BDF
:20446000F9D03B68002B01D0AB42F4D1280041462268FFF781FF2D69002DEFD101220023AA
:20448000DBE7C046900401209C040120F0B54546DE464E465746E0B583B091461C008046D8
:2044A0000D00FDF7A1F80023304A12184B41002B02DA01222E4B52422E4908008A4607F092
:2044C00089FC07006B1C03D1404607F0EBFA0500002C27D0284E294B1C68002C18D04B4658
:2044E000002B21D1264B994602E02469002C0FD02368002BF9D04B461B68002B01D09C4268
:20450000F3D120002A004146B0472469002CEFD1002F26D1280003B0F0BCBB46B246A94601
:20452000A046F0BD174ED6E7154B99460A239B4602E02469002CEBD02368002BF9D04B4613
:204540001B68002B01D0A342F3D12A0041462000B0476B465A462000DA71D91D0122B0479F
:20456000E7E7504607F082FCD4E7C04640420F00FFFFFF7F98E80020754100209004012069
:204580009C040120654100200A4A1368002B05D10CE01A001B691032002B07D08342F8D168
:2045A000002902D118691060196170470029FCD01060FAE79004012010B500F0ABF9012068
:2045C00010BDC046F0B5CE46474680B583B06B460600DD1D2870FDF707F80023194A12186E
:2045E0004B41002B02DA0122174B524217490800884607F0EFFB164B81461C68002C14D03C
:20460000144F02E02469002C0FD02368002BF9D03B68002B01D09C42F4D120000122290090
:20462000FFF7AAFE2469002CEFD14B46002B05D1300003B0C0BCB946B046F0BD404607F053
:2046400015FCF5E740420F00FFFFFF7F98E80020900401209C04012070B5040007F022FA0E
:2046600001230100050001222000FFF70FFF084B1C68002C06D06368002B05D098472469B9
:20468000002CF8D1280070BD2469002CF3D1F9E790040120F0B5CE46474680B5A3B00400EC
:2046A0000D00FCF7A1FF0023274A12184B41002B02DA0122254B5242254E300007F08AFBC3
:2046C00000232200019307002B00224801A9FFF7EBFD214B804699461C68019B002B1AD097
:2046E000002C2FD01D4D02E02469002C0FD02368002BF9D02B68002B01D0A342F4D12000D3
:20470000019A02A9FFF738FE2469002CEFD14B461C6800230193002C06D06368002B0BD00F
:2047200098472469002CF8D1002F07D1404623B0C0BCB946B046F0BD2469ECE7300007F013
:2047400095FBF3E70194EFE740420F00FFFFFF7F98E8002025420020900401209C040120DA
:204760000FB400B583B004A901C90191FFF792FF03B008BC04B01847F0B5002915DD0E4B5B
:204780000D271A680D4B0E4CD3185D426B41451820215B001E5F0478A64207D09369194273
:2047A000FCD101301460A842F5D1F0BD93691942FCD11760F2E7C046383501200080FCBFE7
:2047C00034350120204B70B504000D1E1E682ADD002010211D4B013C1A689369194214D14F
:2047E000013093691942FCD1136823548542F4D1002E08D050239363516B183B0B401449C0
:204800008C4662441360280070BD002E08D050239363516B183B0B400D498C46624413604E
:204820000028F1D10CE0002E0AD05022074B1B689A63596B183A0A4005498C4663441A60B5
:2048400003204042E0E7C04648EF00203835012034100000064B10B51B68002B06D0002102
:20486000044A12689163044A1068984710BDC04648EF0020383501204CEF00200822034B4C
:2048800019688B691A42FCD17047C04638350120F8B51A4F1A4B3A680500D3185842434104
:2048A000184E14331C003368002D02D0002B0FD0F8BD002BFCD0002120009563FCF792F829
:2048C00020001149FCF7CAF8104B35601D60EFE70E4B200019600C493560FCF795F80121E8
:2048E0002000FCF77FF850223B689A63596B183A0A4007498C4663441A60D9E7383501202B
:204900000080FCBF48EF0020514600204CEF0020341000000D4B10B51B780D4B0D4C1B78BB
:204920000D4B02211B780D4B00202360FBF7BAFF02210120FBF7B6FFE12120680903FCF74F
:20494000A5FF01210648FFF71FFE10BDC0020010BC02001038350120B802001000400340E8
:20496000B0E0002010B5034B01001800FBF752FF10BDC0464035012010B5064B064C82B015
:204980000100009300220B232000FBF7FFFE02B010BDC04678C100204035012010B588B0B3
:2049A00004000D2200216846FEF708F80D22002104A8FEF703F84B236A466846137004A918
:2049C0000D2207F051FB1521082220006944FDF7FBFF08B010BDC046054B10B59C46604424
:2049E000000D800041180348FBF714FF10BDC0460000E0AF58EF002010B50A4B0A4AC4186E
:204A0000240DA40082B0009208482200E31CFBF7BDFE844202DC001B02B010BD01204042FE
:204A2000FAE7C0460000E0AF98C1002058EF002070B50D000400FBF771FE1A4A1A4B9446E6
:204A400001226444240DA400E65805212C792023A2406956013A1B1B002913DB00248B4250
:204A60000CDB13008B401E4208D1AB79002B05D18A401400344063425C41E4B2FBF75AFE9F
:204A8000200070BD002B02DA09E0013B07D314009C4019002642F8D1AB79002BE8D000245E
:204AA000ECE7C0460000E0AF38EE0020F0B557464546DE464E468846E0B583B006000525FD
:204AC000FBF72CFE434684465D571879334B344AF3181B0D9B009246D75801222024824028
:204AE000241A013A002D41DBA54232DC1100A9400F422ED14146096889464146897900293C
:204B000045D12C00AA40934659463A40394241D1802189018846002816D06146A44634001E
:204B20004E469946030001915100705A404500D24019A91812318900013208519A42F3D3E7
:204B4000019B64469C464B465A4617435246D75001E0012464426046FBF7ECFD200003B0E3
:204B6000F0BCBB46B246A946A046F0BD002C02DA10E0013C0ED31100A14025000F42F8D1C7
:204B8000414609688946414689790029BAD014246442E0E709246442DDE7C0460000E0AF41
:204BA00038EE002070B501250B7904009D40013D9540FBF7B3FD054B0549E3181B0D9B00EE
:204BC0005A58AA435A50FBF7B5FD70BD0000E0AF38EE0020F0B5DE4657464E464546E0B5CC
:204BE0001600DC22924685B01C004B0002935B18DB00C518AA445246834628001268CC3080
:204C0000009202682B0001921B4A80209446800263441860002C1CD08023DB0499460123BD
:204C2000D83598462B0055469A46144F03912000FCF7F2FF4A46430113432B603300424678
:204C4000C340134052463B431360631E1C40EED10399029B5B18DB005B441A000099DC32F2
:204C60001160019ACC331A6005B0F0BCBB46B246A946A046F0BDC046CC30000080E0000071
:204C8000F0B54E464546DE465746E0B583B089460CA984460D781F2A45D8494649008846E8
:204CA0004944C900461837003400DC373868CC3483462068310001901C4880248246A40299
:204CC00051440C6069424D411E216D428D4318498A465544052B0CD9A0201F214005D836AA
:204CE000540104430532053B3C600A403560052BF6D852019B06134342464A44D200624450
:204D00001000DC3213600300D8331D605B461360019BCC300360002003B0F0BCBB46B246F0
:204D2000A946A046F0BD05204042F5E7CC3000009FE0000010B50248FFF730FE10BDC046ED
:204D4000F0340120044B0CCBBFF35F8F0021116083F310887047C046AC340120054B196819
:204D6000EFF3108072B60A68002AFCD0BFF35F8F58607047AC34012070B5D024802519202A
:204D8000FBF7FEFDAD040022012124061920FBF7A3FD65620520FCF77FFAA5610A20FCF7C1
:204DA0007BFA65610A20FCF777FA70BD10B5044800F0A6FB034B186003685B68984710BDBB
:204DC000C8E000201835012010B50448FBF7BAFF0349044805F08CF910BDC046AC340120FB
:204DE000414B0020594B002030B5154C85B023681B681B69984723681B689969586905F091
:204E00009BF923681B68196AD86905F0ABF923681B68D868196905F07DF96A46094B6946A5
:204E200031CB31C21B680120136005F0D9FB013001D005B030BD0448FFF70EFCF9E7C046CD
:204E400018350120C0D90020C0C10020E42010B5800105F0DFFC042800D110BDE420800121
:204E600005F0D8FC024B01001800FFF779FCFEE7D8C10020014B18607047C04640EE00202B
:204E80000022014B1A60704740EE002010B50E4C2368197B5B685878FBF704FD2368197B42
:204EA0005B68D878FBF7FEFC236801225B680021D878FBF711FD23685B689A7801239340BA
:204EC000D0221206936110BD40EE002070B5012422004368D0265B7905009A4036067262E9
:204EE0006420B261FCF7D8F96B6864205B799C407461FCF7D1F970BD10B5FBF709FCC046CF
:204F000010B5041E1AD00E21415600290CDB0D228256531C05D011498068FFF743FE0E21F7
:204F20006156A068FFF758FD0F20205600280BDA10202056002802DA0023236010BDFFF7A2
:204F400011FDFF232374F7E7FFF70CFDFF231020E37320560028EFDBF1E7C046D0D90020F6
:204F6000F0B557464E464546DE46E0B5012687B0040004910E2105939A46330002926156FB
:204F8000B14F8B40DD43BC469046A9460D254B0080685B18DB00C218624465570392424653
:204FA000D7007A1E676893467A7807689446EA0190465246002A00D1BFE04A46C3183A40C7
:204FC0000260CC331A68A14F0835174042462D033D4315431D608023039A1B061360136016
:204FE000634632009A401300FFF7F4FD0E20320020568023051DAA40A1689B01CB181A607B
:2050000002003700083297401F605B4682008A18136143001B18DB008D4FCB18D8331F60F4
:20502000109F013F17618B4A1A601F22677B3A401A600F23E356884A9E409C46A023DB0503
:205040009E506246920193468026844F76045F443A683242FCD110220127A2567E4E9740E0
:205060009F51A023DB0599467C4B802698469701B944760447443B683342FCD1784B794E6A
:20508000CB181B0DDB00984663468446DB02C444B24633406646F603334311263343AE0013
:2050A000B446A026F6055E448B46049FE34437605F467760029FD202B760F36053461A4013
:2050C00021234544ED032A431A4363464D461033CB182B604B46059D5D60109D9D60DA6088
:2050E000012383400A6813430B600F225E4B80219C46A25649049201624413680B42FCD126
:205100001022594B80219C46A25649049201624413680B42FCD10E2101206156A3684A00C7
:205120005218D2009B18514AD8331A6007B0F0BCBB46B246A946A046F0BD4A463A40026016
:20514000CC229146C31899444A4617683F4A0235174042462D033D4315434A461560802572
:20516000039A2D061560156035000A1D954080229201821815600D0037000835AF405D46ED
:2051800017608A0082181561314DD8331D60029D8027013D15612F4A2F4D1A60E022120279
:2051A0001A60624601230096FFF76AFD0E211F206156637BA26818404B005B18DB00D318CD
:2051C000D83318600F202056A0238640DB055E518601F518214B7F049C46664433683B4268
:2051E000FCD11F4B1F4ED3181B0DDB005B18C0023040DB0303431120034304982860081D94
:205200008000101868600298A860EB60012308001D00183085408B409560280015682B4308
:20522000136093680342FCD00E2101226156A0688A4003689343036063681A78002300935D
:205240000133FFF71DFD66E7D01000007F00FEFF2060000040600000440400000C0000509D
:205260000000E0AFFD7F00FF1000005003A0000030B5094D0F2428680123010085B06C4419
:20528000027D113100932300FFF76AFE00222B6820781A7505B030BD40EE002030B5084C34
:2052A000030020680D00010083B0027D11310095FFF756FE002223681A7503B030BDC046A0
:2052C00040EE002010B50520FBF704FA030C642003495843FCF7CEFC0338FDD210BDC04692
:2052E0009A3B0000064B10B51B685B689A7801239340D02212065361FFF7E4FF10BDC0460A
:2053000040EE0020F0B545465746DE464E46E0B5704F80463C680D00237D85B0032900D11D
:20532000BEE0032B00D1C9E04346002B00D1C2E001260E2132006156A0688A4003689343AE
:2053400003600D23CC22E35691469C464B005B18DB00C718BA46D1444A46126802979246D2
:2053600062460232170303975B4FC318BB4657465A4617403A00039F17433A006746FF0166
:205380003A434F463A60554A370094468022634412061A601A6032000B1D9A4080239B01E9
:2053A000C3181A600A00083297408A001F60EB008218013B1361029B494FD8331F606F1EF3
:2053C0001761484A1A60E02212021A6063685A7801230096FFF754FC0E211F206156637B19
:2053E000A26818404B005B18DB00D318D83318600F23E3569C46330060468340A0203A4E13
:20540000C005835163469F01384B80269946381876044F443B683342FCD16646344BF7023C
:20542000D318344E1B0DDB0037405B184646DB033B43112706600E1DB6003B4396194660D8
:205440008560C360012308001D00183085408B409560280015682B43136093680342FCD09C
:205460000E2101226156A0688A4003689343036063681A78002300930133FFF701FC0E2144
:205480006156A3684A005218D2009B181A4AD8331A6005B0F0BCBB46B246A946A046F0BD4C
:2054A000002B00D03DE72000032241461130FDF78BFA2575EDE71148FBF712F9210000263C
:2054C00020000023032211310096FFF749FD3C68267529E740EE00207F00FEFFD010000057
:2054E0002060000040600000440400000C0000500000E0AFFD7F00FF03A0000018C2002041
:20550000F0B5DE4657464E464546E0B5904C83B02368002B00D0D7E001268E4B60602360E2
:205520004078FBF72DFA31006368D0255A782D0691406962A9619878FBF722FA31006368E4
:205540009A789140696269611879FBF719FA63680021187900228640AE62FBF7BDF97E4D55
:205560007E482900FFF764FA002800D1B2E007237A48FF260021A0602674E6732373FFF7AC
:205580003BFA40B2A073002800DAACE02900A068FFF78CFA40B2060008366073704BC00111
:2055A000360306431E40B3466E4E6368B446187ADA88000212041043DA78302791008C4428
:2055C000664636688246B743674EB046664641440F6036680127B4463E00604686430E6099
:2055E00059781B78F8209C46C001930203406046C0038046F8204646000306401F203343E3
:205600000600F8200E4080004901014033430B435649C8201943A3688946984639006346D2
:205620009940534B8446434419600E21615656464B005B18DB0043449C4460460660180083
:205640004C4ED03006605E46043806604846DC331860012340460097FFF712FB6368217B44
:205660005878FBF71FF96368217BD878FBF71AF96368012218780021FBF72EF963680121EF
:205680001878FBF73DF90E216156A3684A005218D2009B18384AD8331A600020FFF76CF9A6
:2056A000E0730020FFF768F90F2340B22074E356002B28DB002846DB200003B0F0BCBB4638
:2056C000B246A946A046F0BD0023002B00D023E70020F2E729002948FFF7AAF90028F7D00D
:2056E0000623264845E70F202056002820DA10202056002803DBFFF735F9FF232374002374
:2057000000202360D9E70E2161560029F1DB0D22A256531C10D1A068FFF75EF90F23E35614
:20572000002BE4DB1800FFF71DF9FF23E373DEE7FFF718F9E673DAE72900A068FFF732FAAA
:205740000E216156E7E70E2161560029DFDAE9E71C350120D4E00020D0D90020000030506E
:20576000FFFFFF9F04C0014004D0014000001024382000000000831001E000000000205003
:2057800010B501220021122002F09AFC0221122002F0C8FC02F030FD02F0D2FC0122002118
:2057A0000E2002F08DFC1320FBF7EAF8D02380221B0612035A629A6110BDC04610B504F02B
:2057C00041FEC0B210BDC0460120704710B5002201210B2002F074FC0B2002F093FC10BD5E
:2057E00010B5122002F094FC10BDC046022807D8044B4000C25A01239340D0221206D36174
:205800007047C046ECD900200048704788FF0020F0B5514B514C87B023600223A61DFF338E
:205820000C2230004E49A380FDF7CEF8042320000025012763770A22013300211F30A7763B
:20584000E5762577A377FDF7B9F82F23C022E254444B20002363444BBD3A6363434B0021F8
:20586000A363434B5330E363424B23644423E25202337132E554FDF7A1F820000C223E49A9
:205880004730FDF7A1F820000A220021D630FDF795F8C723394AE5540133E250384A04334B
:2058A000E250384A0433E250374A0433E252374A0C33E250364A0433E250364A0433E2501B
:2058C0000433E5500433E5500433E55080220433E5500433E55000235200A5520232A35473
:2058E0002D4A0021A7542D4AA3542D4B1E22E018FDF764F89623DB00E51828220021280083
:20590000FDF75CF8274B0922E0182749FDF75CF89B23DB00E218254B254981CB81C21B884F
:20592000280013802E222923A25CE35C04922D22A25C03922C22A25C02922B22A25C01929D
:205940002A22A25C00923200FEF798FCA0236722DB00E25007B0F0BD0100050488FF002042
:2059600034C20020A80B02C0A80B01FFFFFF00010188138813C0A80B40C2002008080808FE
:20598000080000B80B01581B88130000000101012B2B2B0001000C01A5040000AF0400003F
:2059A000E2040000A604000050C200205CC2002068C2002030B5284C01202100274A85B05C
:2059C00002F05EFC210006220020293102F058FCE223E35C002B3BD12E252A232922655D4A
:2059E000E35CA25C03952D25655D1D4902952C25655D1C4801952B25655D0095FEF7B0FE6A
:205A0000E369194A1B021B0C013B9BB293421CD8EE23E35C0220033B012B01D9FFF7D4FEC3
:205A2000E823E054BF3BE25CFF2A08D10022E2540E4B563263850E4BA3852E23E2540123A0
:205A400023800433A37005B030BDFFF7E1FEDFE7FEF7B2FDC0E7C04688FF0020040500001B
:205A600024DA002084C20020FDFF000008DCFFFF12340000F0B5124C124DA5440124124FAD
:205A8000124E2A0000210120114B02F009FC01200F4A01A902F0F4FB28000D4A01A905F0C4
:205AA00067FC002808D02300F822390030000134FEF756FE062CE4D1064B9D44F0BDC04693
:205AC000F4FAFFFF88FF002008DA0020B4C20020040500000C05000010B5FCF775FF10BD88
:205AE00010B5FCF771FF10BDF0B5D64646464F46C0B58AB004AC2100012004F049FB61791C
:205B00006378227803912179434D0291E17843480191A17800912900FEF722FE617AE3792A
:205B2000A2790191217A3E4800912900FEF718FE3C4E2900F26B3C481202120CFEF710FE09
:205B400029003A48FEF70CFE617CE37BA27B0191217C374800912900FEF702FE617BE37AAD
:205B6000A27A0191217B334800912900FEF7F8FD617DE37CA27C0191217D3B2400912E48CB
:205B80002900FEF7EDFD335D012B1FD03F234622F15C0133F35CB25C1B020B43012A1ED026
:205BA00042224427B15C9046013A9146B25C0293F35D2248019343239A46F35C00930B00FD
:205BC0002900FEF7CDFD335D032B0FD01C48FEF743FD0AB0E0BCBA46B146A846F0BD32008D
:205BE000290047321748FEF7BBFDEFE74B464246F35CB25C13435246B25C1343F25D1343B4
:205C000004D029001048FEF7ABFDDFE729000F48FEF7A6FDDAE7C046F4D90020ECC2002032
:205C200020C3002088FF00204CC300205CC300206CC3002090C30020B4C300200CC4002003
:205C400084C40020D8C3002064C4002044C4002030B5184C87B02100062268462931FCF7ED
:205C6000B3FE6D46210004222F31A81DFCF7ACFE21000E20042233316844FCF7A5FE21007B
:205C80000A20042237316844FCF79EFE210012200422C8316844FCF797FEC723E35C694693
:205CA0005A1E934100200133AB7504F071FA07B030BDC04688FF0020F0B5C646040000B50A
:205CC000FFF7A2FD23B20500002B38DDA30606D54F4B1B78012B4BD0012002F049FD40265E
:205CE000264023072ED4E30656D4E30448D4002E2CD002F0EDFC80460700032002F0BCFC5D
:205D0000260043239E4355D101F04EFB802800D174E083235B00EE54EB185E709E70DE7079
:205D20000423FF33EE540733EE54404602F0A4FC032003F013FEE223EB5C002B55D180BC34
:205D4000B846F0BD01F0F2FA002E2DD12406F6D5A12230493048FEF703FD2D4B1B78002BBB
:205D600003D1E233EB5C002B43D101F0E5FAE6E74026002002F0FCFC26402307B3D5E1E7C7
:205D80007C2224492548FEF7EBFC002002F0B0FA012002F0ADFAD7E779221E492048FEF71C
:205DA000DFFCFFF767FECFE702F092FC0700032002F062FC832200235200AB54AA1853705F
:205DC0009370D3700422FF32AB540732AB54380002F052FC032003F0C1FDE223EB5C002B2C
:205DE000B4D01048FEF738FCB0E70E48FEF734FCA5E708210C4802F085FBB6E702F068FC1E
:205E0000012002F039FCFFF735FE01F095FA96E7F2E20020BCDC002000C50020B4C40020EB
:205E200088C40020E8C4002030C50020F0B50023C64600B50B703B4B06001C680F00984614
:205E4000002C61D01D0003E06C680435002C5BD0200005F027FE21000200300005F00EFBF6
:205E60000028F1D14346ED1AAD10ECB2202C21D0212C0BD02300423B022B29D93800B11C14
:205E800005F008FE200080BCB846F0BDB2780D2A42D00023FA540133DBB2F21892780D2A10
:205EA000F8D1DA1CB25C0A2A0AD10022FA54FB185A70E7E7337A0D2B02D1737A0A2B01D040
:205EC000FF24DFE706223800B11CFCF77DFDD9E7FF2342462B409B00D3581349DE221348ED
:205EE000FEF73EFC300005F0DDFD32180130335C31180A2B01D0002B11D10D231370033B1D
:205F00000B7001233B70BDE73300C42206490848FEF726FCFF24B5E703220023C2E70A23E7
:205F20001370EEE718E10020B0DC00205CC500203CC50020F0B5DE4645464E465746E0B5C8
:205F4000CD4C0D00A54407910400FFF75DFC002306AAD3760021042209902800FCF72EFD05
:205F6000C64B20001900984605F0BCFA061E00D10AE300250EAB9B46C14B0B93C14B9A4617
:205F8000C14B089359463000FFF750FF0400FF2863D05B461F78002F67D07722089B1B787B
:205FA00093435ED0584605F07DFD0A90462C11D8A30099464A46B54B9B589F462022380077
:205FC000B349FEF75BF9B34B1D4200D1CFE20023079A137053461B78002B04D12BB2002B22
:205FE00001DA00F033FD4146002005F07BFA061EC8D12B00A848A94A0B99FEF7B1FB28005D
:206000008F239B009D44F0BCBB46B246A946A046F0BD0A9B062B01D100F0C7FC85231B020B
:206020001D4353461B78002BDDD1B3702B129C4A803B9B009A58FF2C2CD1079C330020004F
:206040009849FEF71BF9F02223000B9992009648FEF786FB02F0AEFAD1E784231B021D4321
:20606000DFE786231B021D43DBE7904B079F820099583800914602220A930237FCF7A4FCE2
:20608000452C9BD84A468A4B9B589F4681231B021D43C6E7A300994684484B46C658CCE761
:2060A0002923099AD35C002B00D056E22A33D35C082B00D051E22333D35CDC2B00D04CE243
:2060C00083231B021D43ACE7380001F033F806ABD8760A9B012BA1D101289FD8E323099A2B
:2060E000D05477E7380001F025F806ABD8760A9B012B93D1012891D8E723099AD05469E7F1
:20610000584604F06DFD80235B02984286D2D222099983B288540A001B0AD232537059E774
:20612000584604F05DFD80235B02984200D375E7D422099983B288540A001B0AD4325370C9
:2061400048E7584604F04CFD80235B02984200D364E7CF22099983B288540A001B0ACF3269
:20616000537037E70DAF3900584600F067FF002800D153E72F233A781FE00DAF390058468C
:2061800000F05CFF002800D148E737233A7814E00DAF3900584600F051FF002800D13DE79C
:2061A00033233A7809E00DAF3900584600F046FF002800D132E7C8233A780999CA547A78C5
:2061C0000133CA54BA780133CA54FA780133CA5400E70A9B132B00D920E7202F01D000F06B
:2061E0001BFC0023099A9371F4E6380000F0A2FF06ABD8760A9B012B00D00FE7062800D97E
:206200000CE76421002002F06FFA06ABDA7E3B230999CA54DEE6380000F08CFF06ABD876EE
:206220000A9B012B00D0F9E6012800D9F6E6E023099AD054CEE6380000F07CFF06ABD876E0
:206240000A9B012B00D0E9E6042800D9E6E6E223099AD054BEE6380000F06CFF06ABD876FB
:206260000A9B012B00D0D9E6012800D9D6E6D123099AD054AEE6C046C4FDFFFF78C500208F
:20628000A4DC0020F2E200207935012048DA0020D8C50020B080FFFF18C70020CA030000A2
:2062A000FCE00020F4C60020FCC6002018E1002064DB002006AA94461B2363441900584688
:2062C00000F052FF0F2206ABDB7E06A91A40CA760A99022900D9A1E60E21194200D09DE6EE
:2062E00019091F2B00D999E6EF230998C1540133C254012900D06DE6012001F073FF69E6A8
:20630000584604F06DFC80231B03984200D80AE383220023099952008B548A18537093701F
:20632000D3708523DB221B020B999200D9481D43FEF716FA75E6584604F04CFC0A9B032B94
:2063400000D96BE6431E9BB2FE2B00D966E6CC23099AD0543EE6380000F0ECFE06ABD8762C
:206360000A9B012B00D059E6012800D956E6C723099AD0542EE6584604F032FC80235B027A
:20638000984200D34AE6099B82B23D33120A18705A701FE6584604F023FC80235B029842DA
:2063A00000D33BE6099B82B23F33120A18705A7010E60DAF3900584600F040FE46230028E9
:2063C00000D0DDE201220999CA545B461B78202B00D000E32733C854FCE5584604F0FAFB3B
:2063E0000A9B022B00D919E683B20D2B00D915E6EA23099AD054EDE5380000F09BFE06AB9A
:20640000D8760A9B012B00D008E6012800D905E6EB23099AD054DDE5380000F08BFE06ABB9
:20642000D8760A9B012B00D0F8E5022800D9F5E5EC23099AD054CDE5380000F07BFE06ABD9
:20644000D8760A9B012B00D0E8E5012800D9E5E5ED23099AD054BDE5380000F06BFE06ABF9
:20646000D8760A9B012B00D0D8E5042800D9D5E5E8230999CB5C023B012B00D8D8E2EE23D1
:20648000C854A7E5584604F0ABFB80235B02984200D3C3E5CD22099983B288540A001B0AF6
:2064A000CD32537096E5584604F09AFB80235B02984200D3B2E5F122099983B288540A0064
:2064C0001B0AF132537085E5584604F083FB0A9B042B00D9A2E5802380B21B01984200D95F
:2064E0009CE5F323099AD0541300000AF333587070E50A9B022B00D090E5584600F002FE39
:20650000002800D18AE506AA94461B2363441900584600F029FEF52206ABDB7E09998B5434
:20652000002B00D08DE204328B5453E50A9B092B00D973E5202F00D067E2D6230022099975
:20654000CA5447E50A9B092B00D967E5202F00D054E20023099AD3773CE5099A58464E4995
:20656000293200F049FE002800D033E556E5380005F098FA04000322414638180234FCF756
:2065800023FA3B1907932EE5444A002300250B9230E581231B021D430023079A1370404B62
:2065A0001B78002B00D01EE50A980023B3702B123C4A803B9B009A586FE50B2001F0FCFDEE
:2065C000394902003800FDF759FEFCE40A20F5E7F023EF2209993800CB5C8A5C3349FDF753
:2065E0004DFEF0E4E723099A3800D25C2E49FDF745FEE8E42A23292209992D48CB5C8A5C33
:206600000A902E20085C03902D20085C02902C20085C01902B20085C0A9900903800FDF709
:206620002DFED0E4099B3800991D05F033FACAE40998204943780278807800903800FDF726
:206640001DFEC0E4E223099A3800D25C1649FDF715FEA2223B000B9952001748FEF780F846
:20666000B1E4E023BFE73B23BDE7C723BBE7C923C82209991148CB5C8A5C0A90CB20085C87
:206680000190CA20085C0A9900903800FDF7F6FD99E4C04698C6002094C60020A4DC0020AE
:2066A000F2E20020FCE00020A8C50020F4C500207CC500209CC50020ACC50020CCC5002060
:2066C000342333220999E348CB5C8A5C0A903620085C01903520D5E7382337220999DD48C3
:2066E000CB5C8A5C0A903A20085C01903920C9E730232F220999D748CB5C8A5C0A9032203D
:20670000085C01903120BDE7CF23D0220999CB5C8A5C38001202D0491A43FDF7AFFD52E464
:20672000D4230999D522CB5CF2E7D2230999D322CB5CEDE7D12356E7D623099AD35C002B1B
:2067400000D13BE411003800D63105F0A3F93AE4E523E4220999C148CB5C8A5C0A90E620E4
:20676000085C0A9900903800FDF788FD2BE4E32339E7F523099A3800D25CB949FDF77EFD0A
:2067800021E4F3230999F422CB5CC1E7F1230999F222CB5CBCE7CD230999CE22CB5CB7E77C
:2067A000EE2320E7ED231EE7EC231CE7EB231AE7EA2318E74623099AD35C002B00D111E156
:2067C0004723D35C002B01D1FFF7F8FB11003800473105F05FF9FFF7F6FB7722A14B1B782D
:2067E000934300D1F3E03D230999CA5C0133CB5C1B021343012B00D115E188231D43FFF735
:20680000E6FB3C220999984B8A5C38009200D15805F040F9FFF7D7FBE82399464946099BC8
:20682000924A5B5C38009B0099580A9205F032F94946F122099B52005B5C8D480B99FDF789
:206840008FFF4846099B0A9A1B5C0B999B009B58E4228848FF32FDF783FFFFF7B4FB772270
:20686000804B1B78934300D1B1E080231D43FFF7AEFB0E23FF33B6E6CC23B4E6E823B2E6B5
:2068800001F098FE062238007B49FCF79DF8FFF79AFB3F2309994022CB5C39E73D2309998B
:2068A0003E22CB5C34E7099B9B79002B01D1FFF785FB29232E20099A911DD35C0A91105CEA
:2068C0006E4904902D20105C03902C20105C02902B20105C01902A20105C0A9A009038006D
:2068E000FDF7CCFCFFF76FFB77225E4B1B7893436DD020231D43FFF76AFB7722594B1B78C6
:20690000934364D010231D43FFF761FB099BDB7F002B01D1FFF752FB099938001F3105F02B
